:10000000EDC2000023C3000021C300001FC3000095
:100010001DC300001BC3000019C3000017C300006C
:1000200015C3000013C300000C9440260C940C2749
:100030000C94A3210BC3000009C3000007C30000F8
:1000400005C300000C94EB1901C30000FFC20000BF
:100050000C940E1A0C941A22F9C20000F7C2000088
:10006000F5C20000F3C20000F1C20000EFC20000C0
:10007000EDC20000EBC20000E9C20000E7C20000D0
:10008000E5C20000E3C20000E1C20000DFC20000E0
:10009000DDC20000DBC20000D9C20000D7C20000F0
:1000A000D5C20000D3C20000D1C20000167C1E00E1
:1000B0001F0020002100220023002400250026002C
:1000C00027002D002E0031002B0014001A0008001C
:1000D000150017001C0018000C00120013002F0060
:1000E00030002A00E30004001600070009000A009F
:1000F0000B000D000E000F0033003400000028003C
:10010000E10000001D001B000600190005001100A1
:1001100010003600370038002152E5000000E000F2
:10012000E200000000002C0000000000000035008C
:100130000000E700E6000000167C3A003B003C00AF
:100140003D003E003F0040004100420043004400AB
:1001500045004900390014001A0008001500170076
:100160001C001800460047004800520030005300B1
:10017000E000AA00A900A800B0000A005500540041
:100180004A004B0050004F0000002800E100000032
:100190001D001B00060019000500570056004D0009
:1001A0004E0051000000E5000000E200E300000006
:1001B000000022520000000000004C000000E70098
:1001C000E6000000137020782178227823782478C4
:1001D000257826782778287829782A782B782C781B
:1001E0002E782F783078317832783378000000001C
:1001F00000000000000000000000037C0000000080
:1002000000000000000000000000000000000000EE
:10021000000000000000007C000000000000000062
:1002200000000000000000000000000000000000CE
:1002300000000000000000000000000000000000BE
:100240000000000000002D78000000000000000009
:100250001E0F0500047F3F1F643214643214783C83
:100260001E1E140A052223252628292A2C2D2F306C
:1002700032333536383A3B3D3E4042434547494AA2
:100280004C4E5051535557595A5C5E6062646668D3
:10029000696B6D6F71737577797B7D7F81838587DE
:1002A000898A8C8E90929496989A9C9E9FA1A3A5E1
:1002B000A7A8AAACAEAFB1B3B4B6B8B9BBBCBEBF09
:1002C000C1C2C3C5C6C7C9CACBCCCDCED0D1D2D28C
:1002D000D3D4D5D6D7D7D8D9D9DADADBDBDBDCDC97
:1002E000DCDCDCDDDDDDDDDCDCDCDCDCDBDBDBDA4F
:1002F000DAD9D9D8D7D7D6D5D4D3D2D2D1D0CECDBA
:10030000CCCBCAC9C7C6C5C3C2C1BFBEBCBBB9B8C6
:10031000B6B4B3B1AFAEACAAA8A7A5A3A19F9E9C4B
:100320009A98969492908E8C8A89878583817F7D16
:100330007B79777573716F6D6B6968666462605EF7
:100340005C5A5957555351504E4C4A4947454342C0
:10035000403E3D3B3A3836353332302F2D2C2A295A
:100360002826252322FFAA7F554000010101010113
:10037000010101010202020202020202020303035E
:10038000030303030304040404040404050505052E
:1003900005060606060607070707070808080809EE
:1003A0000909090A0A0A0B0B0B0C0C0C0D0D0D0E9A
:1003B0000E0E0F0F0F10101111111212131314142F
:1003C000151516161717181819191A1A1B1B1C1DA4
:1003D0001D1E1E1F202021222223242425262627FD
:1003E0002829292A2B2C2D2D2E2F3031323233342F
:1003F00035363738393A3B3C3D3E3F404142434435
:1004000045464748494A4C4D4E4F50515354555616
:1004100058595A5B5D5E5F616264656668696B6CC2
:100420006D6F7072737577787A7B7D7E808283853D
:1004300087888A8C8E8F91939596989A9C9EA0A27D
:10044000A3A5A7A9ABADAFB1B3B5B7BABCBEC0C287
:10045000C4C6C9CBCDCFD1D4D6D8DBDDDFE2E4E74B
:10046000E9EBEEF0F3F5F8FAFDFF1603580044004F
:100470003600300020005200650076002000330076
:1004800000000C03580049005500440049000000DA
:100490000403090409023B00020100A0FA09040058
:1004A000000103010100092111010001224400079C
:1004B000058103080001090401000103000000098F
:1004C000211101000122B60007058203200001125C
:1004D000010002000000084478636301000102008B
:1004E0000105010902A10185020901A100050919FF
:1004F00001290815002501950875018102050109EA
:100500003009311581257F95027508810609381556
:1005100081257F950175088106050C0A3802158131
:10052000257F950175088106C0C005010980A101DC
:10053000850319012AB700150126B700950175102A
:100540008100C0050C0901A101850419012AA0023E
:10055000150126A002950175108100C0050109064C
:10056000A1018506050719E029E715002501950871
:10057000750181020507190029EF1500250195F085
:10058000750181020508190129059505750191027A
:10059000950175039101C005010906A1010507191F
:1005A000E029E7150025019508750181029501757F
:1005B0000881010507190029FF150026FF0095068F
:1005C0007508810005081901290515002501950503
:1005D00075019102950175039101C00011241FBEA0
:1005E000CFEFDAE0DEBFCDBF04B603FE18C08091C6
:1005F0007D0390917E03A0917F03B09180038730AB
:10060000904BA740B04B59F410927D0310927E039B
:1006100010927F0310928003E0E0F8E3099511E067
:10062000A0E0B1E0EEEDF5E502C005900D92A43E2C
:10063000B107D9F723E0A4EEB1E001C01D92AD37B8
:10064000B207E1F70E947E120C94902AD9CC229A2C
:100650002A98089522982A980895CF93DF93D82F47
:1006600052D1C82F811519F0D1FF05C0F0DF8C2FB2
:10067000DF91CF910895EEDFFACF8330B8F4653083
:10068000A8F44E3098F4E42FF0E09EE0699FE00D6E
:10069000F11D112496E4899FE00DF11D1124EE0F48
:1006A000FF1FE455FF4F85919591089581E090E0FB
:1006B0000895E3CF089581E0089581E00895FBCF88
:1006C000089581E0089581E0089581E00895FDCFC7
:1006D000089508950895FDCF089508950895A6E01A
:1006E000B0E0E5E7F3E00C94582949835A839E83F0
:1006F0003091EB0189819A81311117C03E8131150A
:1007000089F0211579F0A2D5182F682F89819A8157
:100710007CD569817A81812F0E94570F2696E3E06C
:100720000C94742983D5182FF4CF90D569817A81E0
:10073000F3CFFC01262F4081518162817381848136
:100740009581CDCFCF93DF93D82FC92F61E0F1DF13
:100750006D2F7C2FB2DF811539F061E08D2F9C2F3A
:10076000E8DF6D2F7C2FABDFDF91CF9108950F93E2
:100770001F93CF93DF93D82FC92F60E0DADF8C016E
:100780006D2F7C2FA7DF6D2F7C2FC801A4DFDF9199
:10079000CF911F910F91089521E030E0A90102C08F
:1007A000440F551F8A95E2F7CA0168C4CF93C82F3A
:1007B00081E090E00C2E02C0880F991F0A94E2F7A6
:1007C0000E94530D8C2FE8DFCF91089581E00895AA
:1007D00081E00895FBCF0895CF93C82FFED38C2FCF
:1007E000F7DF8C2FF7DF2FEF84E39CE02150804070
:1007F0009040E1F700C00000CF91089581E0ECDF68
:100800000C943E2280E0E8DF0C9462220F931F9349
:10081000CF93DF938C0161E08CDFEC01F8018581DF
:1008200081110E94E818B801CE014DDF811509F44D
:100830004DC0B801CE014BDF811509F447C0B801A6
:10084000CE010E94B619811509F440C0B801CE014D
:100850000E941B1F8115D1F1B801CE010E948E1B91
:100860008115A1F1B801CE010E94651B811571F1BE
:10087000B801CE010E949412811541F1B801CE0158
:100880000E945610811511F1F8018581811581F0C2
:10089000CA35FCE7DF0721F170F4C130ECE7DE0771
:1008A000E9F0C330FCE7DF07B9F0C115DC4769F0B8
:1008B000C80107DF0CC0CB35ECE7DE07A1F0CC3573
:1008C000DC47B1F70E94120DF3CF98DF80E0DF9193
:1008D000CF911F910F9108950E944B0D93DFF6CF9A
:1008E0000E94190DE5CF0E941B0DE2CFF6DE0E949B
:1008F0007A2180E00E9499190BC00E94F2180AD058
:10090000EDDE0C947E2181E008950895A6CE089531
:1009100080E0FCCF0E94681FF9CFCF930E94681F30
:10092000C82F8091E6018C1771F0C093E6010E94F8
:100930000E226093E7017093E8018093E9019093A0
:10094000EA018C2FE3DFCF910895ADE0B0E0EBEA50
:10095000F4E00C945929488759876A877B878C87EC
:100960009D87911186D71F8286E0FE013896DE01B1
:10097000119601900D928A95E1F78D8181110CC03D
:1009800029813A814B815C816D817E818F81C1D6C5
:100990002D96E2E00C947529CE010196D3DE8111EB
:1009A000EFCFF6CFFC018481813019F480819181F1
:1009B0007EC40895611521F00E94F01C0C94A91DBD
:1009C0000E94311DFBCFCF93C82F8115B9F082381B
:1009D000B9F40E94771F81FD11C089E30E94AB200A
:1009E000D5D72FEF37EE83E0215030408040E1F73C
:1009F00000C0000089E30E94C220C8D7CF910895AB
:100A0000833899F40E94771F80FDF8CF83E50E9418
:100A1000AB20BCD79FEF21EE34E091502040304016
:100A2000E1F700C0000083E5E6CF843899F40E9426
:100A3000771F82FDE3CF87E40E94AB20A7D78FEF1B
:100A400091EE24E0815090402040E1F700C000008A
:100A500087E4D1CF8CEF8C0F813A68F48C2F0E9401
:100A60001D20811521F08C2F0E94C2208FD78C2F42
:100A70000E94AB20C2CF80E28C0F883040F4C77058
:100A800081E001C0880FCA95EAF7D4D6B6CF8BE5CE
:100A90008C0F833038F42C2F2452330BC9010E9461
:100AA000AC1FACCFE8E5EC0FEB3150F4F0E0EE0F0B
:100AB000FF1FEF5CFE4F808191810E94D41F9ECF6B
:100AC00083E38C0F833108F099CF61E08C2F72DFC4
:100AD00095CF811509F44DC0823861F40E94771FCB
:100AE00081FF47C089E30E94AB2050D789E30E9471
:100AF000C2204CC7833851F40E94771F80FF39C051
:100B000083E50E94AB2042D783E5F1CF843851F4CE
:100B10000E94771F82FF2DC087E40E94AB2036D74A
:100B200087E4E5CF9CEF980F913A08F390E2980F95
:100B3000983048F4877091E001C0990F8A95EAF7E0
:100B4000892F7ED6D6CF9BE5980F933020F480E096
:100B500090E00C94AC1F98E5980F9B3120F480E056
:100B600090E00C94D41F93E3980F933110F460E05D
:100B700021CF08950F931F93CF93C82F8B0123DFAD
:100B80000115110531F48C2FA4DFCF911F910F9126
:100B900008958FE99FE00197F1F700C00000015030
:100BA0001109EECF60E570E0893311F060E070E08C
:100BB000E1CF811511F03ED6E9C60895811511F0F7
:100BC0003FD6E4C60895A0E0B0E0E9EEF5E00C946D
:100BD00053296C01D62FC72FFC0115810681029580
:100BE0000F701DD6E82E8115E9F0E12E1115D1F018
:100BF0008C2F807F803461F080E28D0F8830E0F0B0
:100C00008C2F807E803221F4D230B0F00115A1F01B
:100C100080912A0382FF10C082E0DDD600D691E0E9
:100C2000E82EE926EC2FE295EF70C03C78F5F0E075
:100C3000EE56F54D0C941E29E12CF4CF0C2F0F70BD
:100C4000C03110F00295007F111581F0011549F0B7
:100C500080E28D0F883010F0D11105C0802FEAD5C9
:100C600095D68D2F41C0802FF6D5FACF8D2F31DF4D
:100C7000011561F080E28D0F883010F0D11103C0B2
:100C8000802FDED502C0802FECD580D6E11409F488
:100C9000B7C0C1D580FDB4C0F6011582B6D51FD24C
:100CA000C6016CD1B2D529D2ABC0FC2FFF70FF2E8C
:100CB000C07FC03219F0F29480EFF822D11541F0D4
:100CC000D13081F1111509F439C00115C9F0C9CF2E
:100CD00080912A0382FD10C0111541F0F11419F022
:100CE0008F2DA8D553D680E06EDED0CF80E0F1DE28
:100CF000F11461F28F2DC5CF111559F0011103C008
:100D00008F2D57DFC3CF013009F0C0CF8F2DC6D54F
:100D1000BDCF0111BBCF8F2D51DF8F2DCAD58F2DA8
:100D2000AED5B4CF111521F0063008F0AFCFE8CF23
:100D3000053008F0ABCF8F2D41DFA8CF0115D9F3D7
:100D4000D93349F42FEF87EE93E021508040904053
:100D5000E1F700C000008D2FBCDE98CF8C2F869568
:100D600086958370811569F0813009F08FCF8D2FC2
:100D70009C2F9370111102C080E090E00E94D41F5C
:100D800085CF8D2F9C2F9370111102C080E090E0D1
:100D90000E94AC1F7BCF612F8D2F0CDE77CF8C2F65
:100DA0008370811138C0111128C04D2F429546958E
:100DB0004770440F440F2D2F2F7030E0042E02C0D7
:100DC000220F331F0A94E2F780E090E0D4FF09C0BD
:100DD0008FE090E002C0880F991F4A95E2F7809556
:100DE0009095C695C695C370822B932BC23079F02F
:100DF000C33079F0C13049F04AD10E94681F86DDC6
:100E0000CDB7DEB7E8E00C946F293AD1F6CF46D1E2
:100E1000F4CF34D1F2CF111559F1C0FFEECF4D2FE1
:100E2000429546954770440F440F2D2F2F7030E0A8
:100E3000042E02C0220F331F0A94E2F780E090E0F4
:100E4000D4FF09C08FE090E002C0880F991F4A9537
:100E5000E2F780959095C695C695C370822B932B2B
:100E6000C23061F0C33061F0C13031F06BD1C5CF19
:100E7000823008F4C2CFD3CF5ED1BFCF6AD1BDCF0D
:100E80001AD1BBCFCF70111529F08C2F28D18D2FFF
:100E900090DEB3CF8D2F92DE8C2F2FD1AECFD23FED
:100EA00031F168F4D03FC1F0D13F89F0111509F458
:100EB0003EC0011509F438C08D2F85DD9ECFD33F8C
:100EC000E1F0D43F99F780912A0382FD1EC08C2F58
:100ED0008F71111511F30FC0111539F0053008F09D
:100EE0008CCF8C2F8F7119D188CF0630F8CF8C2FF3
:100EF0008F711111D2CFF3D080CF111521F08C2F2B
:100F00008F71E3D07ACFDED078CF111529F063E06E
:100F10008C2F8F7148D571CF81E05DD5023008F4F8
:100F20006CCF82E058D569CF8C2F8F71E4CF01153B
:100F300071F0D93349F4EFEFF7EE23E0E150F040E0
:100F40002040E1F700C000008D2FC3DD56CF8C2F6D
:100F50008F71A3CF0F931F93CF93DF93EC01688121
:100F600079818D81AFD18C01FBD087D0B801CE01C2
:100F70002ADEDF91CF911F910F910895CF93DF93D8
:100F8000EC018C81811581F0CE0140DC81110FC014
:100F900046D4811549F08D81811531F080912A0365
:100FA00082FF02C082E017D5DF91CF910895CE0174
:100FB000D1DFCE01DCDBF8CF80E090E00E94AC1FF7
:100FC00080E090E00E94D41F54D4E0D40E94C31D5E
:100FD0000C94A91D0E94D920EFCF3AD4FBCF282F23
:100FE00092959F70963099F060F4925F9F70923066
:100FF00030F4203FB1F038F481E0283E38F080E052
:1010000008959A5FF3CF81E0243FC9F7089591E0F6
:10101000813F09F090E081E0283E08F080E0892BD4
:10102000089581E00895FC018481811521F080817B
:1010300091813DD1D4CF80E00895A6E0B0E0E3E215
:10104000F8E00C9459292696E2E00C947529A7E063
:10105000B0E0EDE2F8E00C9459292796E2E00C9418
:1010600075290895FECF0895FDCF0895FADFFCDFBE
:10107000909313028093120208950895F7CF089574
:101080002091120230911302822B932BEFCF2091EB
:1010900012023091130282239323E8CF209112028F
:1010A0003091130282279327E1CFDBCF0895FDCF44
:1010B0000895D7CF0895FDDFFADF90931102809352
:1010C0001002089580E090E0F6CF21E030E0A90121
:1010D00002C0440F551F8A95E2F7CA01ECCF21E008
:1010E00030E002C0220F331F8A95E2F78091100290
:1010F00090911102822B932BDECF21E030E002C0D1
:10110000220F331F8A95E2F72095309580911002C7
:101110009091110282239323CECF21E030E002C0D0
:10112000220F331F8A95E2F78091100290911102ED
:1011300082279327C0CF2091100230911102822B79
:10114000932BB9CF20911002309111028223932367
:10115000B2CF209110023091110282279327ABCF9A
:1011600008959B01677091E001C0990F6A95EAF7B5
:1011700063E0369527956A95E1F7220F331F220F1A
:10118000331FFA01E20FF31F40E050E0682F70E0D8
:101190008191DF019B01042E02C0369527950A94A8
:1011A000E2F7217021952827292328272E934F5FC6
:1011B0005F4F4430510561F708959C01982F977057
:1011C00083E0369527958A95E1F7220F331F220F8A
:1011D000331FFB01E20FF31F40E050E080E021915C
:1011E00030E0092E02C0369527950A94E2F7217067
:1011F0003327042E01C0220F0A94EAF7822B4F5F97
:101200005F4F4430510559F70895282F862F9530A8
:1012100060F42E3050F4622F70E02EE0929F600D4B
:10122000711D11244CEE51E09CCF0895292F95306B
:1012300058F48E3048F490E06CEE71E03EE0239F6D
:10124000800D911D1124B9CF80E00895A0E0B0E099
:10125000ECE2F9E00C9452298C01E0901002F0903D
:1012600011028091120290911302E82AF92ACFE02C
:10127000D0E0CC24C394D12CC6010C2E02C0880F20
:10128000991F0A94E2F78E219F21892B49F4219717
:1012900098F7B12C8B2DCDB7DEB7E9E00C946E2911
:1012A000BC2EB8018C2F0ED6019789F3F3CFCF93C4
:1012B000DF93D82FC92FCADF6D2F7C2F03D6DF9184
:1012C000CF9108951F93CF93DF93162FD72F90912F
:1012D000EB01911539F0862F972FE9DFDF91CF9140
:1012E0001F910895811569F0862F972FAFDFC82FC2
:1012F000682F812F9D2F89DF612F7D2F8C2FE2D5C5
:10130000EDCF862F972F92DFC82FF6CF0F931F9325
:10131000CF93E0911402C7E0809115028E1304C0B0
:10132000CF911F910F9108950E2F10E0CE9FF001E5
:101330001124EA5EFD4F2081318142815381648115
:101340007581868184DEF8013196E770E5CF2091C2
:101350004E0230914F0240915002509151026091E3
:101360005202709153028091540271CE80915402C6
:10137000803178F480915302811559F0E091140284
:101380002091150230914F0240914E0257E02E13EA
:1013900001C008956E2F70E05E9FF0011124DF01FF
:1013A000AA5EBD4F14968C911497811549F1119640
:1013B0008C911197831324C08C91841321C01596AE
:1013C0008C91159781111CC012968D919C91A091C2
:1013D0005002B09151028A1B9B0B883C910580F40E
:1013E000809154028F70806180935402E45EFD4FBF
:1013F00080818F70806180838EE492E0BFDD86CF34
:10140000FB013196E770C3CFE09114029091150271
:1014100027E0E91302C080E00895AE2FB0E02E9FD0
:10142000F0011124EA5EFD4F3181361306C0308190
:10143000381303C03581341304C0FD013196E770C1
:10144000E8CF81E008958F929F92AF92BF92DF9292
:10145000EF92FF920F931F93CF93DF93CDB7DEB739
:101460002D970FB6F894DEBF0FBECDBF8C0186E07E
:10147000F801DE01189601900D928A95E1F7F801C6
:10148000F58084819EE4892E92E0992E90915202FB
:10149000911117C0811509F4EFC0F11409F42EC1A0
:1014A000C801C1DD811509F429C187E0F801D40123
:1014B00001900D928A95E1F7C40174DA57DF47DF96
:1014C000DBC0E080A280B380D09053022091500214
:1014D00030915102A501421B530BD11409F4CFC026
:1014E000483C510508F09EC0811509F4C5C0909193
:1014F0004F02918080915402803108F065C09912AA
:1015000026C090914E029E1122C0F11057C08F70DC
:101510008061809354021BDF8EE492E02FDD809186
:101520005402F8018683F12C8F2D2D960FB6F89476
:10153000DEBF0FBECDBFDF91CF911F910F91FF9006
:10154000EF90DF90BF90AF909F908F900895F11033
:1015500035C040E0692D8E2D57DF40E0692D8E2D7E
:1015600053DFF82E8111DFCF88859985A0DE292FE2
:1015700022952F70903450F49F70223078F091159E
:1015800091F0F8019681903170F4CECF2A5F2F70E0
:10159000223070F0C801F2DCFD2CC6CF911519F095
:1015A000811509F4C1CF805E883008F4BDCFF2CF39
:1015B000803F08F4B9CF815F8330F7CF8091540228
:1015C000816080935402AFCF991207C090914E0270
:1015D0009E1103C0F11409F473C0C80124DD811504
:1015E00009F48CC0F11409F489C08091540280324E
:1015F00080F020914E0230914F023A832983BC82C1
:10160000AB82909152029D831E828F83CE01019600
:10161000B5DC87E0F801AEE4B2E001900D928A9566
:10162000E1F74CCF90915402903188F44885598568
:101630006A857B858C859D8500DD8EE492E09EDC4D
:1016400087E0F40111928A95E9F781DE6CCF81156C
:1016500099F020914F0281812813BFCF80914E02D3
:101660008E11BBCFF110B9CF9683C80187DC87E01C
:10167000F40111928A95E9F7FF24F39455CF483C81
:10168000510508F03EC08115B9F3F114B9F19091FC
:101690004F028181981329C080914E028E1125C07E
:1016A0008091540280FD18C08031B0F08683807F25
:1016B000803F39F08681982F907F905F8F70892BC3
:1016C0008683C8015BDC87E0F801AEE4B2E00190FC
:1016D0000D928A95E1F7F3CE87E0F801AEE4B2E02F
:1016E00001900D928A95E1F7C7CFC8019CDC81116A
:1016F00090CF80915402816080935402C8013EDCF7
:10170000BBCF488559856A857B858C859D8595DC11
:1017100097CFAEE0B0E0EFE8FBE00C9458292887C3
:1017200039874A875B876C877D878E87CE010896CD
:101730008ADE6C858115A1F0611539F0288539851F
:101740004A855B857D858E8582DC17E08091140259
:1017500090911502891338C02E96E3E00C947429F9
:1017600087E0FE013896DE01119601900D928A9570
:10177000E1F7611551F3A09115028A2F90E00196CF
:1017800087709927209114022817190681F097E095
:101790009A9FD0011124AA5EBD4FFE01319601909F
:1017A0000D929A95E1F780931502B0DDCECF15DC4E
:1017B000109215021092140287E0EEE4F2E0DF01CD
:1017C0001D928A95E9F7C1CF189FC00111248A5E46
:1017D0009D4F39DE811509F4BFCFE09114021E9FA1
:1017E000F0011124EA5EFD4F208131814281538155
:1017F0006481758186812BDC8091140290E00196D2
:101800008770992780931402A1CF80917D028695DD
:1018100086958695089580917D02877008959091B0
:101820007D02977081E0911101C080E00895809160
:10183000A90208959091A902982B9093A902089566
:10184000982F90958091A90289238093A9020895E9
:101850001092A90208959091A802982B9093A80243
:101860000895982F90958091A80289238093A802CB
:1018700008951092A80208950895FECF08959091BA
:101880007E02292F2823211529F080958923809312
:101890007E02F3CF08950895FECF089590917F02C0
:1018A000292F2823281721F0982B90937F02F4CF1B
:1018B000089590917F02292F2823211529F08095E2
:1018C000892380937F02E8CF089580917F0281155C
:1018D00021F010927F0280E0DFCF0895CF93C09176
:1018E000A9028091A802C82B80917F02811529F05E
:1018F000C82B0E94FC1F8111E8DF8C2FCF91089527
:10190000CF93DF93C0910601D0910701E7DF888371
:10191000C0910601D091070148E050E065E772E010
:10192000CE010E94182A892B59F088E0FE01A5E714
:10193000B2E001900D928A95E1F7CE010E94791FE5
:10194000DF91CF910895CF93DF93C0910401D0919F
:101950000501C4DF8983C0910401D091050140E2F3
:1019600050E065E572E0CE010E94182A892B59F0FB
:1019700080E2FE01A5E5B2E001900D928A95E1F7C3
:10198000CE010E94861FDF91CF9108950E94611FB2
:10199000811529F08091290387FF01C0D4CFB0CFF2
:1019A0000895FECF0895962F20912A0322FF0EC09E
:1019B000682F660F660F660F692B60937D028FDBC1
:1019C00080917D02869586958695EBCF88CB109287
:1019D0007D0280E0E6CF90917D02809589238093FF
:1019E0007D02282F277021110BC0891749F0909193
:1019F0002A0392FF05C08695869586957EDBE7CF04
:101A0000089590912A0392FB222720F9281749F084
:101A100080FB92F990932A0389E293E048D082E018
:101A2000DACF089580912A03002482FF0394802D49
:101A3000E8CF81E0E6CF80E0E4CF60E070E0CB016A
:101A400006C460E070E0CB01FCD3F7CFA4E0B0E0C7
:101A5000ECE2FDE00C9459293BD346D31C82CE0125
:101A6000049659D381E090E0909313028093120280
:101A70005ED3198284E18A83CE01019669D31B82E9
:101A8000CE01039677D356D6DCDF2496E2E00C94A1
:101A90007529DCCF08952EC308951BC3089530C364
:101AA00008953FC3089543C3089546C3089550C39E
:101AB000089555C308955EC3089562C30895A1C3F0
:101AC0000895CBC30895A6E0B0E0E9E6FDE00C94EC
:101AD00057290E9402228C018091AA029091AB02A8
:101AE0008017910779F019821A820E940222BC01A4
:101AF00049815A8180E090E00E94A5041093AB02D6
:101B00000093AA022696E4E00C9473290E940E2208
:101B10006093BA027093BB028093BC029093BD02A3
:101B20006093B6027093B7028093B8029093B902A3
:101B3000089508950895FDCF08950895FEDFFBCF21
:101B40000895FECF08950895FEDFFBCF84E590E170
:101B5000E6D4F0DFF3CF81E0089581E00895FBCF74
:101B60000895089508950895FCDFFCDFFCCF95DF0C
:101B7000811101C08EDF8EEB92E091DF89E293E06C
:101B800094DF0E94631B8DDF79DA809110029091BF
:101B900011028DCA0E94F92121D4E9DF0E94850437
:101BA0000E94EF1A0E94F2180E941B18CDCFA6E0E7
:101BB000B0E0EDEDFDE00C944D29CFDF81110DC0BB
:101BC00082DF0E94E9180E94EE1A0E94E41D0E9422
:101BD0008D042696EEE00C94692912D42CEA822E0C
:101BE00022E0922E540110E0F501619071905F01A6
:101BF000812F3ED36C011F5F153009F446C0681673
:101C0000790691F38091BE0281FD3BD3A8DF782E47
:101C100010E066246394812F2BD37C01F401A19002
:101C2000B1904F018A159B0559F1A826BF2400E009
:101C3000CC24C394D12CC5018C219D21892BC1F0CA
:101C40007114B1F009831A830E9402229C838B8352
:101C50006D8221E0C7018C219D21892B09F420E0B0
:101C600049815A816B817C818D81922F0E94A504CC
:101C70000F5FCC0CDD1C0E30F1F6F401F292E29213
:101C80001F5F153041F642DF9CCF6816790609F0D8
:101C9000B9CF96CF1F93CF93DF9316D1EC01811567
:101CA00022E5920708F05AC0811540E5940708F034
:101CB000D7C0803E910528F58D3C910508F0A9C05C
:101CC000883A910578F4853A910508F09FC08130F3
:101CD000910509F43EC00497813A9105D0F1C0E026
:101CE000D0E037C0885A91094B97C8F7C85AD0E05E
:101CF000CC0FDD1FC959DE4F0990D881C02DD464A7
:101D000028C0811550E49507E8F4C11580E2D80792
:101D100008F0BCC0C83ED105E0F0CE019A9581150F
:101D20009F41E8F68D2F71D1182FCE019927CCD085
:101D3000212F30E0322F2227E901CC27DF71C82B79
:101D4000D92B07C09927C0D0CC27DF70C82BD92B3F
:101D5000D06ACE01DF91CF911F910895803842E57E
:101D60009407C8F5803652E5950708F05BC0C0348B
:101D700082E5D807D0F4C03292E5D90708F04BC00D
:101D80008C2F8695869520E2829FC0011124C37016
:101D900021E030E0A90102C0440F551FCA95E2F7C7
:101DA000EA01C82BD92BDD68D4CF8C2F8695869578
:101DB000877050E2859FC0011124C37021E030E09C
:101DC000A90102C0440F551FCA95E2F7EA01C82BCA
:101DD000D92BDC68BECF803C52E5950758F48F7153
:101DE000C03AD245A0F590E0982F8827EC01C46F47
:101DF000D06AAFCF805C9245809708F070CFDC2F1F
:101E0000CC27CC27DF71C06FD06AA3CFA497D06452
:101E1000A0CFD0659ECFCF71D0E0DC2FCC27C16F93
:101E2000D06A97CF86958695877020E2829FC00101
:101E30001124C37021E030E0A90102C0440F551FF6
:101E4000CA95E2F7EA01C82BD92BDA6882CFDDD038
:101E5000C82FD0E0DC2FCC27CC27DF71D06279CF20
:101E60008F71D3D053E0CC0FDD1F5A95E1F7CC270B
:101E7000DF70282F30E084FF05C050E1859F90017E
:101E800011243327C22BD32BD06963CF8D2F8F71B1
:101E9000BCD0182FCE01992717D0212F30E0322F38
:101EA000222722273F71282B392BE901D7CF462F34
:101EB000672F753020F44E3010F40C94590380E0F5
:101EC00090E00895F4DFE6CE9C01803E910509F490
:101ED00048C0D8F48133910509F47DC048F48932B3
:101EE000910509F46DC08A9709F47CC0C901089571
:101EF0008933910551F18238910539F1C597B1F7D0
:101F00008091290385FFF2CF29C0843E910509F411
:101F100047C048F4823E910599F1833E9105A9F1AD
:101F200021EE30E0E3CF863E910509F444C0873EC0
:101F30009105E1F68091290383FD61C090912A0308
:101F400091FF2BC024EE30E0D1CF80912903837024
:101F5000811152C080912A0383FFC8CF29E230E06B
:101F6000C5CF8091290380FD33C090912A0390FF53
:101F7000BDCF23EE30E084FFB9CF20E030E0B6CF14
:101F80008091290382FDF5CFB1CF8091290382FD95
:101F900030C090912A0390FD2FC084FFA7CFEDCFD2
:101FA00080912A0381FFA2CF8091290327EE30E0A0
:101FB00084FDE3CF9BCF8091290383FDF7CF96CF9C
:101FC0008091290385FD1EC080912A0383FF8ECF57
:101FD00029E330E08BCF8091290386FF87CF2AE267
:101FE00030E084CF8091290386FF80CF21E330E069
:101FF0007DCF22EE30E07ACF20EE30E077CF26EEB4
:1020000030E074CF25E330E071CF9091290392FF47
:1020100010C041E0282F2471243009F040E031E065
:10202000282F2871283009F030E0431711F02CE0F8
:10203000822793FF10C041E0282F2471243109F03A
:1020400040E031E0282F2871283109F030E04317B3
:1020500011F02CE0822730912A0330FF10C051E0AC
:10206000282F2171213009F050E041E0282F2871FC
:10207000283009F040E0541711F029E0822731FFA1
:1020800010C041E0282F2171213109F040E031E0FA
:10209000282F2871283109F030E0431711F029E08A
:1020A000822794FD877E089580E00895CF939C0158
:1020B000FB01805E9245C1E0809738F4C581C11173
:1020C00004C0822F8F710E94D6038C2FCF91089568
:1020D000089580E090E00E943B2A9C0181E0233E2D
:1020E0003E4F09F080E0089563EE7EEF80E090E0DF
:1020F0000C945A2A6FEF7FEF80E090E00C945A2AFC
:10210000CF93DF93EC0182E090E00E942E2A888337
:10211000DF91CF910895FC01608182E090E00C9402
:10212000402A83E090E00E942E2A90E00895682FD4
:1021300083E090E00C94402ACF93DF93EC0184E09D
:1021400090E00E943B2A99838883DF91CF91089584
:10215000FC016081718184E090E00C945A2ACF9355
:10216000DF93EC0186E090E00E942E2A8883DF91C5
:10217000CF910895FC01608186E090E00C94402AA4
:102180008F929F92AF92BF92CF92DF92EF92FF9287
:102190000F93CF93DF93EC0188E090E00E94362A02
:1021A0004B015C0168839982AA82BB821C821D82DA
:1021B0001E821F8283E290E00E942E2A282F30E0A8
:1021C00040E050E060E070E080E090E000E20E94DB
:1021D0008029282939294A295B29288339834A8378
:1021E0005B836C837D838E839F83DF91CF910F917F
:1021F000FF90EF90DF90CF90BF90AF909F908F9027
:1022000008950F93CF93DF93EC01488159816A8140
:102210007B8188E090E00E94522A288139814A819E
:102220005B816C817D818E819F8100E20E949B2970
:10223000622F83E290E00E94402ADF91CF910F91BC
:102240000895AB01BC018FE090E00C94522AAB01E1
:10225000BC0183E190E00C94522A682F8EE090E05C
:102260000C94402A0895FECF08950895FECF089556
:10227000E82FF0E0EE0FFF1FEB5CFC4F80819181B7
:102280000895089580EA8A95F1F7089500C00895A9
:10229000F9CF0895F894E82FE295EF70F0E041A1AE
:1022A0008F7021E030E0B90102C0660F771F8A9578
:1022B000E2F7CB01962F9095942391A392A1892BBD
:1022C00082A378940895CF93DF93CBEAD1E08991EC
:1022D0008F3F09F0DFDF81E0C03BD807C1F7CDE9D0
:1022E000D1E089918F3F09F0D5DF81E0CB3AD80763
:1022F000C1F7DF91CF9108958F929F92BF92CF92B5
:10230000DF92EF92FF920F931F93CF93DF938C0195
:10231000B62EE62EF12CC70185559E4F6C01FC01AF
:1023200080818F3F09F44EC0F894E82FE295EF705A
:10233000F0E091A18F7021E030E001C0220F8A957A
:10234000EAF7892F822B81A382A12095282322A33B
:1023500078949CDFEDE9F1E021E030E0812C912CD4
:1023600041914F3F81F0A42FA295AF70A05EB0E0E5
:102370008C9190E04F7002C0959587954A95E2F751
:10238000E90180FF04C080E0C82F90E0D92F8C2A9B
:102390009D2A220F331F81E0EB3AF80709F7F60177
:1023A00080818F3F09F076DF61E08114910409F4A8
:1023B00060E08B2D6DDFEE0CFF1C0E0D1F1DF80174
:1023C00091828082DF91CF911F910F91FF90EF90CA
:1023D000DF90CF90BF909F908F90089574DF8AE038
:1023E000E5E3F3E0DF01982F1D929A95E9F7EBE220
:1023F000F3E0DF011D928A95E9F785E03BD033CF0A
:10240000AAE0B0E0E6E0F2E10C945629FE01319634
:102410008AE0DF011D928A95E9F710E0FE2E0F2F6A
:10242000612F8F2D902F68DF1F5F1530C9F74AE0AD
:1024300050E06F2D702F8BE293E00E94182A21E06C
:10244000892B71F420E045E065E373E08BE293E0D3
:1024500012D0182F0BDF812F2A96E5E00C947229F9
:102460008AE0EF2DF02FABE2B3E001900D928A9558
:10247000E1F7E9CF0895A0E0B0E0E1E4F2E10C94E7
:102480005329D82EE92EF62ED72F042FC22F21152F
:1024900079F081E08093C1020E9402229093C002F1
:1024A0008093BF0280E0CDB7DEB7E8E00C946F29DF
:1024B000C090C102C114B1F38091BF029091C002DB
:1024C0000E949321059770F310E0000F111FA801DF
:1024D0006D2D7E2D8F2D9D2F0E94182A892B41F066
:1024E000A8016D2D7E2D8F2D9D2F0E94252ACC2D8C
:1024F0001092C1028C2FD7CF5ACB08950E949C21F5
:102500000E94952323DB0E94AD2344DB0E94B62367
:102510000E94B923F1DF0E94CF2326DBF9CF9093ED
:10252000E5018093E4010895CF93DF93EC01FB0173
:102530008581811104C081E0DF91CF91089577D921
:102540008272FE01E052F847EB30F105A0F7E25647
:10255000F54D0C941E2967D580E0EECF811521F052
:1025600056D5FACF8115E1F347D5F6CF811521F085
:1025700022D2F2CF8115E1F314D2EECF811521F0F2
:1025800034D2EACF8115E1F323D2E6CF811521F0D1
:1025900046D2E2CF8115E1F335D2DECF811521F0AD
:1025A000F0D0DACF8115E1F3DDD0D6CFCF92DF9234
:1025B000EF92FF921F93CF93DF93172FE82F7111A4
:1025C00011C0411521F0F0E0E659FC4FE4916E2F67
:1025D0007E2F8E2FDF91CF911F91FF90EF90DF9094
:1025E000CF900895C62ED12CE72EF12C411521F065
:1025F000F0E0E659FC4FE49186E0689F90011124D9
:10260000CFEFD0E0C901BE010E94D528AB01C601C1
:10261000880F991FF5E5F49FB001F59F700D112407
:10262000861B970B682F660F680F6E01CE18DF08A8
:10263000EC9DD001ED9DB00D11249B2F169F6001E4
:102640001124CD2CDD247E01EC18FD086701EC9DE2
:102650007001ED9DF00C11246E01C61AD108B6016F
:10266000169F6001179FD00C1124CD2CDD24CC19AE
:10267000DD09EC9F6001ED9FD00C11247D2D4330CE
:102680005105C1F02C3F334050F441305105B1F0B9
:102690004230510561F47E2FEB2F9D2D08C0443050
:1026A000510579F04630510511F07B2F9F2D6E2F8B
:1026B000E92F8FCF7F2D9E2FEB2FF9CF7E2FEF2D80
:1026C000F6CF9E2FED2D7B2FF2CF41E06FCF0895F7
:1026D000FCCF089590910B01291B922FE091DD0111
:1026E000F091DE01242F462F682F892F90E0099565
:1026F0000895CF93DF93982F762F842FD22FC32F57
:10270000692FE6DF962F672F482F2D2F3C2F892F1B
:10271000E1DFDF91CF91089580913F03843028F469
:102720008370846080933F0308958C3AE8F383704C
:10273000886AF8CFEFE3F3E085E0808311828FEFC2
:10274000828383831482CF01BAC99091430393306B
:1027500018F49F5F90934303811519F08FE393E082
:10276000AEC9089581E0F1CF90914303911519F01E
:10277000915090934303811519F08FE393E09FC923
:10278000089581E0F1CF0F931F93CF9380913F0382
:1027900080FF09C0E091E101F091E2010995CF913C
:1027A0001F910F910895C0910D010091DD011091CD
:1027B000DE0180910E01C81768F780910B019C2FF4
:1027C000981B892F20E040E060E090E0F801099537
:1027D000CF5FEFCFEF92FF920F931F93CF93DF93D3
:1027E000D82F162F042F80913F0380FF0BC0C0917C
:1027F0000D01E090DD01F090DE0180910E01C8171F
:1028000030F0C1DFCDB7DEB7E6E00C9471298091DE
:102810000B019C2F981B892F202F412F6D2F90E0AB
:10282000F7010995CF5FE9CF982F762F842F20915C
:102830003F0320FF07C0692F4BDF962F672F482FDC
:10284000892FC8CF0895CF93DF93EC01EC81F0E09E
:10285000EB59FD4F4491EFE3F3E062818181E4DFC6
:102860008C818F5F8C83DF91CF910895CF93DF931D
:10287000EC01EFE3F3E0438162818C81D5DF8C8151
:102880008F5F8C83DF91CF910895CF93DF93EC011D
:10289000209142039C81892F817090FD822F692FA6
:1028A000627091FD622F492F447092FD422F92DF9A
:1028B0008C8190E00196877099278C83DF91CF916E
:1028C0000895A0E0B0E0E7E6F4E10C945429D82F95
:1028D000062F142FE22E90913F0390FF21C0E92F85
:1028E000E695E695AE2FB0E0A055BE4F8C91809353
:1028F00007039C7F9430C9F46D2F702F842FE8DE7E
:10290000962F672F482F892F65DFD09340030093C0
:10291000410310934203E11419F08FE393E0CFD801
:10292000CDB7DEB7E7E00C947029823019F410912E
:102930004203EBCF863019F4D0914003E6CF8930C3
:10294000D9F3893111F7E9518E2F8170D82EE69590
:10295000F0E0EB59FC4FC491F12C60910F01F61699
:1029600010F011DFD2CFFC9EC001112470E00E9454
:10297000D5288D2FD1100BC0860F20910D012F0D62
:102980003327331F412F602FB4DEF394E6CF861B2D
:10299000F4CF282FEFE3F3E0818143816281865FEA
:1029A00090CF81E0F6CF282FEFE3F3E081814381E0
:1029B00062818A5086CF81E0F6CF282FEFE3F3E0E3
:1029C000628131E1630F08F46FEF4381818179CF38
:1029D00081E0F3CF282FEFE3F3E0628131E1631B65
:1029E00008F460E0438181816CCF81E0F3CF282F30
:1029F000EFE3F3E0438131E1430F08F44FEF6281ED
:102A000081815FCF81E0F3CF282FEFE3F3E04381B3
:102A100031E1431B08F440E06281818152CF81E0C3
:102A2000F3CF20E04ECFEF92FF921F93CF93DF932F
:102A3000EC0110E0EE24EA94F12C60910F011617DE
:102A400068F0A1DE8C819A8190FF1DC08F5F8C831E
:102A5000DF91CF911F91FF90EF90089520910D018C
:102A6000210F3327331F70E0C7010E94E928962FFA
:102A70008C814091420360914103199F800D112484
:102A800038DE1F5FDACF8150E2CFA0E0B0E0EBE4A8
:102A9000F5E10C945229FC018281D1E080FDDFEF49
:102AA000C0E0C090DD01D090DE0180910F01C81719
:102AB00090F069DE8091C302D13009F04BC08111E2
:102AC00002C080910F0181508093C302CDB7DEB761
:102AD000E9E00C946E2980910D0190910B01891B06
:102AE0008C0F20E040E060E090E0F601099504E002
:102AF00010E0B12CEC2EF12C8091C3028B0D8D30A7
:102B00001CF16CE00E94C828892F082E001C0008C8
:102B10008E150F0499F480910D019701280F311D36
:102B2000409142030403A001112455954795559502
:102B300047956091410380914003DBDDBD0E01505C
:102B40001040D1F6CF5FB1CF87FFDFCF90910F015B
:102B5000890FDBCF90E0019660910F0170E00E9439
:102B6000E928B2CF0F931F93CF93DF93C0910D014C
:102B70000091DD011091DE0180910E01C81750F126
:102B800010E0C091DD01D091DE0160910F011617B8
:102B900070F1F9DD809109019091C202980F909334
:102BA000C20220910A01280F20930A01121654F440
:102BB00020910F012150330B092E001C00089217A1
:102BC00003061CF0819580930901DF91CF911F913D
:102BD0000F91089580910B019C2F981B892F20E065
:102BE00040E060E090E0F8010995CF5FC5CFE12FAC
:102BF000F0E070E0CF010E94E92820910D01820FE2
:102C00009091C202092E001C0008E917F0059CF003
:102C100090910A01092E001C00089E170F065CF017
:102C2000282F30E04091420360914103809140039E
:102C300060DD1F5FAACF90910B01891B20E040E06F
:102C400060E090E0FE010995F4CFA6E0B0E0EBE291
:102C5000F6E10C9453298D839E83AD81BE81149639
:102C6000FC912F2F30E0D9010E942A299B01AC0151
:102C70000E943F296B017C0180E290E09C012F1BA8
:102C80003109F901A5E5B0E0A70196010E943F29AD
:102C900069837A838B839C839F01DF010E942429AF
:102CA0009B010E9439299B01AC012C0D3D1D4E1D3D
:102CB0005F1D69817A818B819C810E94FC28022F93
:102CC00030E00A3240F5A901440F551F420F531F4F
:102CD00055954795142F1095F12C85E5E82EE01AAF
:102CE00080910F01F81628F14EDDAD81BE8114965A
:102CF0009C9181E0911519F0903219F48FEF809337
:102D0000080180910801890FED81FE818483269658
:102D1000E8E00C946F2985E590E0821B930BAC01F1
:102D2000440F551F480F591F57FFD2CF4F5F5F4FBA
:102D3000CFCF8E2DF1FC802F20910D012F0D332749
:102D4000331F412F60914103D4DCF394C9CF0F931B
:102D50001F93CF93DF938C01C0E0D0E090910F01DF
:102D6000C917D1056CF00FDDF801848190E0019660
:102D7000817099278483DF91CF911F910F910895DE
:102D8000F801448180910D019E01280F311D609151
:102D90004103809140039695C917D1053CF4411534
:102DA00039F040914203A5DC2196D8CF4115C9F3F3
:102DB00040E0F9CFA0E0B0E0E0EEF6E10C944B2962
:102DC000FC016280448081E08483E5E6F2E0749057
:102DD000E4EEF2E0E491C0914203C695C158D0E020
:102DE000CC0FDD1FCD2FDD27812C25E0922EAA24CC
:102DF000AA94B12C55245A94E719EE2EF12C809107
:102E00000F01881630F0BFDCCDB7DEB7E0E10C94DF
:102E10006729C82CD12C83E0681658F4989CF001DF
:102E20001124EC53FD4F8091400380838091410336
:102E3000818341101BC09C9CF0019D9CF00D1124CE
:102E4000EC53FD4F1382128280910D019601280FE1
:102E5000311D9C9CF0019D9CF00D1124EC53FD4F05
:102E600042816181808145DC8394C9CF9C9C800133
:102E70009D9C100D11240C531D4FF8018381811569
:102E8000F1F081508383589EC0011124648170E069
:102E90000E94D528FB01FF27EB59FD4F8491E82FB5
:102EA000E7195E9EC0011124B7010E94D5288091C8
:102EB0004203689FB0011124F8017283C5CF0E94BC
:102EC000FD29B5010E94E9288C179D070CF0BCCFA5
:102ED000F3E06F1698F00E94FD29B5010E94E928E1
:102EE000F80180830E94FD29209141032695622FDD
:102EF00070E00E94E928280FF80121839C9CF001D2
:102F00009D9CF00D1124EC53FD4F128280914203E1
:102F1000893C58F088EC9C9CF0019D9CF00D11249C
:102F2000EC53FD4F848383838FCF8431A0F784E1FA
:102F3000F2CFEFE3F3E080818E7F8083CF010E94A8
:102F40005F0D109208031FCC60913F036695669554
:102F500070E04BE050E080E191E00E940B2A892B69
:102F600019F481E0809308030E94022290930103E8
:102F700080930003089590913F0390FF2CC081152A
:102F800059F18B3258F58F73880F880F90913F035A
:102F90009370892B80933F03611521F08FE393E0B9
:102FA0000E945F0D60913F036695669570E04BE06F
:102FB00050E080E191E00E940B2A892B89F0109269
:102FC000080381E080930303409142036091410331
:102FD0008091400326CD089581E0D6CF8AE2D4CFF8
:102FE000B3DFEFCF682F80913F03869586958F5F83
:102FF0008B3208F081E0BFCF81E0F4CF682F809161
:103000003F03869586958A9509F48AE2B4CF81E0DC
:10301000F5CF61E0B0CFEFE3F3E0808181608083A2
:1030200086958695F6CF80913F0380FF01C081CFC2
:10303000F2CF60E0A0CF8091060381111FC08FE323
:1030400093E00E945D0D80913F03843028F472DB91
:103050008FE393E00E945D0D5FDB10920803E09127
:10306000DB01F091DC01099580913F0380FF03C0F3
:1030700086958695DEDF81E08093060308950F93A1
:103080001F93CF93DF9380910803811509F441C00A
:1030900080910703E0913F03E695E695E81BE093F6
:1030A0000203853109F48BC008F044C0893009F46B
:1030B0007CC0A0F5823009F466C0863009F46CC08B
:1030C000C0EDD7E007E613E180910303811561F0BD
:1030D000109203030E940222909301038093000345
:1030E00010920503109204030E9402222091000313
:1030F00030910103821B930B8F3F9F4750F42C0F9D
:103100003D1F309301032093000380E093E0F8011A
:103110000995DF91CF911F910F9108958F3081F61E
:10312000E695F0E0E85AFD4FE491CE2FD0E005E4BB
:1031300015E1CACFC4EFD1E007EA16E1843221F2EB
:1031400088F4C8E2D0E005E216E1883109F4BCCF8A
:10315000833209F0B5CFE3E5F2E0C591D59105E4FE
:1031600014E1B2CF853209F0ABCF8E2F63E00E941D
:10317000BC28E92FF0E0E05BFD4FE491CE2FD0E0DA
:103180000AED16E1A1CFF0E0EF59FD4FE491CE2F0B
:10319000D0E003E214E198CFF0E0E25AFD4FE49171
:1031A000CE2FD0E006E314E18FCFE695F0E0E55AAC
:1031B000FD4FE491CE2FD0E003E115E185CFF0E0A3
:1031C000EB5AFD4FE491CE2FD0E002EB15E17CCF1E
:1031D000089555CF089585E38093470387E493E0EE
:1031E0000C945B0D87E493E00E94590D8091470396
:1031F00082FFF1DF80914703883320F0877080637E
:103200008093470390914703892F817090FF04C0FA
:10321000892F86958695869535C190914703892F8C
:10322000869586958695903340F48F5F880F880F3A
:10323000880F9770892B80934703809147038160A3
:103240008093470387E493E00E945B0D80914703DE
:1032500086958695869516C180914703883088F0BB
:1032600088508093470391E0883008F490E0809183
:10327000470390FB80F98093470387E493E00E9423
:103280005B0D80914703869586958695FBC080915E
:10329000470380FD12C0816080934703813019F499
:1032A00089E08093470387E493E00E945B0D80915F
:1032B0004703869586958695E5C0089580914703D6
:1032C00080FF09C08E7F8093470387E493E00E94CC
:1032D0005B0D80E0D7C008958091470380FF01C057
:1032E000EDCFD5CF809147038695869586958F5FE4
:1032F0008F71873008F080E0880F880F880F9091D9
:1033000047039770892B8093470391E0883008F436
:1033100090E08091470390FB80F98093470387E416
:1033200093E00E945B0D8091470386958695869574
:10333000A9C0873008F086E0209147032770982FB6
:10334000990F990F990F922B9093470321E0983092
:1033500008F420E09091470320FB90F990934703F5
:1033600091C0E7DF87E493E00C945B0D9C01FB01C7
:103370008581811539F12330F8E73F07D9F060F4F2
:103380002130E8E73E07A1F02230F8E73F07B1F02F
:103390002115384749F008952430E8E73E0761F0E9
:1033A0002530384769F0089586E0DBDF80E0089536
:1033B00080E0FBCF51DFFACF30DFF8CF8DDFF6CFE3
:1033C00091DFF4CF81E00895859A8D9A08958D98C4
:1033D00008958D9A08951F920F920FB60F9211249F
:1033E0002F933F934F935F936F937F938F939F930D
:1033F000AF93BF93EF93FF93ECDFFF91EF91BF91FA
:10340000AF919F918F917F916F915F914F913F917C
:103410002F910F900FBE0F901F9018951F920F9233
:103420000FB60F9211242F933F934F935F936F9397
:103430007F938F939F93AF93BF93EF93FF932091CD
:1034400088003091890080918600909187006AEF12
:1034500070E00E94D5286B5F7F4F6217730708F4F6
:10346000B6DFFF91EF91BF91AF919F918F917F91C7
:103470006F915F914F913F912F910F900FBE0F90E1
:103480001F901895A0E0B0E0E8E4FAE10C9453290D
:10349000C82F8730E0F581113BC080918800909162
:1034A0008900892B51F080916F008D7F80936F0090
:1034B00080916F008E7F80936F008BDF209186005C
:1034C00030918700AC2FB0E00E942A2926E030E03E
:1034D00040E050E00E94FC2869017A01809186005A
:1034E000909187006CE070E00E94D5286217730706
:1034F00000F1C90169E070E00E94D528709389004D
:1035000060938800CDB7DEB7E8E00C946F29C6E081
:103510008091880090918900892B81F680916F00BD
:10352000826080936F0080916F00816080936F0054
:10353000C5CF809186009091870000918600109100
:1035400087002091860030918700C6E0D0E0BE0160
:103550000E94D528C60ED71EE11CF11C85E0CC0CBC
:10356000DD1CEE1CFF1C8A95D1F7C801BE010E942C
:10357000D52840E050E0260F371F411D511DC701DF
:10358000B6010E94FC2869017A01E0918600F09161
:103590008700CA01B9010E94AD289B01AC01DF017F
:1035A0000E943F299B01AC01C701B6010E94AD28D2
:1035B0002FE096958795779567952A95D1F7209175
:1035C000860030918700261737071806190608F07D
:1035D00095CF609186007091870090CF0895F4DEBA
:1035E00082E08093800089E1809381008FEF9FEFDC
:1035F0009093870080938600F5CD869A0895FC010C
:10360000EE0FFF1FE80FF91FE85BFC4F618340835B
:1036100022830895FF920F931F93CF93DF93182F68
:10362000062FF42EC0E0D0E02F2D402F612FCE01C9
:10363000E6DF2196CC30D105B9F7CDB7DEB7E5E0AE
:103640000C94722931B33F7B21B320644FB7F894B7
:1036500088E493E0FC010196508168E021BB000002
:1036600000C057FF31BB550F000000C000C000C0B4
:1036700031BB00C06A9591F753E08C36950751F73E
:103680004FBF8FE594E00197F1F700C00000089567
:103690000C944B0D089580E00E94381181700895BC
:1036A0000E9400122FEF86E791E021508040904069
:1036B000E1F700C000000E940012EDDF811511F05B
:1036C000E7DFDCC60895ECCF0895CF93DF93EB01DD
:1036D00086319C4709F50E94170C9D81911599F040
:1036E0008A7A91E0811101C090E0909309038115DD
:1036F00041F085E330D50E94C60C80E0DF91CF9188
:10370000089589E2F7CF80910903811519F085E3C7
:1037100039D5F1CF89E2FCCF81E0F0CFCF93DF93B1
:10372000EC01FB018581811509F4CBC09E01305766
:103730002332310508F0ABC089E293E00E94550DB9
:10374000FE01E150F047E232F10520F4E755F54D76
:103750000C941E298091290381608093290390C0D5
:1037600080912A03886080932A038AC0809129036C
:103770008260F3CF809129038460EFCF8091290389
:103780008860EBCF80912A038160EDCF80912A037E
:103790008260E9CF809129038061DFCF8091290386
:1037A0008062DBCF809129038064D7CF0E94ED0730
:1037B000809129038068D1CF809129038C60CDCF7F
:1037C00080912A038360CFCF809129038E7FC5CF5C
:1037D00080912A03877FC7CF809129038D7FBDCF3A
:1037E000809129038B7FB9CF80912903877FB5CF43
:1037F00080912A038E7FB7CF80912A038D7FB3CF2C
:10380000809129038F7EA9CF809129038F7DA5CF39
:10381000809129038F7BA1CF0E94ED07809129031E
:103820008F779BCF80912903837F97CF80912A0345
:103830008C7F99CF80912903992782FF939590FBE4
:1038400082F990FB83F989CF80912A03982F909574
:1038500090FB80F990FB81F986CF90912903892F05
:103860008F7B96FF806479CF0E94ED0790912903AA
:10387000892F97FB87F9805870CF81E00E94610DF6
:1038800089E293E00E94570D0E94ED0780E0DF91EE
:10389000CF91089580E0F2CF90912903892F8F7EF8
:1038A00094FF80615ACF90912903892F8E7F90FFDA
:1038B000816053CF90912A03892F877F93FF88607F
:1038C00052CF81E0E4CF282F35EB2303C001112430
:1038D00097FF04C080589109892F089580589F4F01
:1038E000FBCF8091100380FF0DC06091200170E03C
:1038F000660F771F60387105B0F561157105A9F184
:10390000862F089581FF07C06091200184E0689FA1
:10391000B0011124EFCF82FF04C06091200188E044
:10392000F6CF90910F039115D9F020911F0180914E
:103930002001682F70E0921730F043E0660F771F88
:103940004A95E1F7D7CF899FC001112433E0880F52
:10395000991F3A95E1F7622F70E00E94E928CACFDB
:1039600068E070E0CDCF8FE7089581E00895809101
:10397000100380FF0CC060911C0170E07595679585
:10398000759567956115710549F1862F089581FF39
:1039900006C060911C0170E075956795F3CF60914A
:1039A0001C0182FD0BC090910E039115A1F0609156
:1039B0001B0180911C01961738F0682F70E0603869
:1039C000710500F38FE70895899FC001112470E00D
:1039D0000E94E928F4CF61E070E0D7CF81E008953C
:1039E000E3E3E80FE331A0F5F0E0E553F54D0C9487
:1039F0001E2977DF819580931403089572DFFBCF32
:103A000070DF81958093130308956BDFFBCFAFDFE9
:103A1000809315030895ABDF8195FACFA8DF8195D8
:103A2000809316030895A3DFFBCF815D990B21E0FE
:103A300030E001C0220F8A95EAF780911203822BB1
:103A40008093120308958091100381608093100386
:103A50000895809110038260F9CF809110038460F3
:103A6000F5CF409113038D3C59F48091140387FFE7
:103A70000DC010921403411559F410920F0308C0A1
:103A80008E3C81F48091140318169CF3411581F04B
:103A90008091150390911603892B811159C01092C2
:103AA0000E0308958F3C41F447FFF0CF10921303AB
:103AB000809114038115E0CF803D19F41416B4F3FE
:103AC000E5CF90911503893D29F41916FCF6109263
:103AD0001503DCCF8A3D19F497FFD8CFF8CF90912A
:103AE00016038B3D29F497FFD1CF10921603CECF4A
:103AF0008C3D19F41916CCF3C9CF9FE2980F98307A
:103B000090F4815D990B21E030E0B90102C0660FAD
:103B1000771F8A95E2F7CB01809590911203892354
:103B200080931203B3CF8D3D31F4809110038E7FCB
:103B300080931003ABCF8E3D21F4809110038D7FD5
:103B4000F7CF8F3D09F0A2CF809110038B7FF0CF8C
:103B5000089558D42091130330911403232B211579
:103B600021F080930C0390930D0320911503309165
:103B70001603232B211521F080930A0390930B0346
:103B800081E193E0D6C186E0E1E1F3E0DF011D923F
:103B90008A95E9F710920F0310920E03109210030A
:103BA0000895FC01828181110DC0838181110AC0B9
:103BB0008481811107C081E09581911101C080E06D
:103BC0008170089581E0FCCFA6E0B0E0EAEEFDE16F
:103BD0000C94532986E0E1E1F3E09E012F5F3F4F13
:103BE000D90101900D928A95E1F71092130310927A
:103BF000140310921503109216038B819C81892B5C
:103C00007901811581F080910C0390910D038BD384
:103C10006C0180910F03811599F1909121019C1500
:103C20001D0408F43AC08D819E81892B811589F08D
:103C300080910A0390910B0376D38C0180910E033F
:103C4000811509F458C090911D019017110608F4D0
:103C500060C0B70181E193E0C5D2811104C081E168
:103C600093E09FDF811175DF86E0F701A1E1B3E00A
:103C700001900D928A95E1F72696E8E00C946F2961
:103C8000209122019AE0299F900111242C153D05D5
:103C900050F68F5F80930F0302C08F3FD1F7DB8018
:103CA000D11451F01EDE91E01D140CF09FEF899F9E
:103CB000802D112480931303DC80D11451F011DE88
:103CC00091E01D140CF09FEF899F802D11248093AB
:103CD000140380911303811509F4A5CFD090140328
:103CE000D11409F4A0CFEFDD809313038D2DEBDD0C
:103CF0008093140398CF20911E019AE0299F900190
:103D000011242017310708F0A4CF8F5F80930E0392
:103D100002C08F3FD1F71D81111551F028DE91E0CF
:103D200011160CF09FEF899F802D112480931503AD
:103D30001E81111551F01BDE91E011160CF09FEF62
:103D4000899F802D1124809316038091150381157E
:103D500009F47FCF10911603111509F47ACFB3DD62
:103D600080931503812FAFDD8093160372CF0F93DD
:103D70001F93CF93DF93C42FD22FFC018581811530
:103D8000C1F0409319033ED3909318038093170317
:103D900080E28C0F883040F4C77081E001C0880F4A
:103DA000CA95EAF70E94D905DF91CF911F910F9133
:103DB000089510911903141332C080911703909144
:103DC0001803B1D2883C910550F5C0E2CD0F1D1704
:103DD000C1F080E2810F883040F4177081E001C0AB
:103DE000880F1A95EAF70E94DE05C83050F491E07A
:103DF0008D2F877001C0990F8A95EAF7892F0E944D
:103E0000D905802F0E94D205C83070F6D77081E0A6
:103E100001C0880FDA95EAF70E94DE05C5CF80E27F
:103E20008C0F883008F0C0CFC77081E001C0880FC8
:103E3000CA95EAF7F1CF0F93DB01FC01E851FC478B
:103E4000E730F10590F5E252F54D0C941E2906E29B
:103E500021EE41EE6AE17CE7CD0189DF80E00F9140
:103E6000089507E225EE45EE6BE17CE7F5CF06E22B
:103E700021EE40EE68E17CE7EFCF07E225EE44EE6D
:103E800069E17CE7E9CF06E221EE42EE6CE17CE7F6
:103E9000E3CF07E225EE46EE6DE17CE7DDCF08E2F9
:103EA00021E045EE6EE17CE7D7CF15968C9181112C
:103EB0001092190381E0D3CF90931F0380931E03C8
:103EC0000895F7D1982F81E0913009F080E00895AE
:103ED000E0911E03F0911F03309739F00190F081BB
:103EE000E02D309711F00995089580E00895F0CF06
:103EF0000895E0911E03F0911F03309731F0028086
:103F0000F381E02D309709F009950895DC01E091E7
:103F10001E03F0911F03309759F084819581892BFE
:103F200039F086E08C930480F581E02DCD01099570
:103F30000895DC01E0911E03F0911F03309759F0C2
:103F400086819781892B39F082E08C930680F781F6
:103F5000E02DCD0109950895A3E0B0E0E2EBFFE18B
:103F60000C9459299C0180911C0390911D03821788
:103F70009307B1F030931D0320931C03E0911E03BF
:103F8000F0911F03309761F00084F185E02D3097A8
:103F900039F083E089833B832A83CE01019609951A
:103FA0002396E2E00C947529A3E0B0E0EAEDFFE18E
:103FB0000C9459299C0180911A0390911B0382173C
:103FC0009307B1F030931B0320931A03E0911E0373
:103FD000F0911F03309761F00084F185E02D309758
:103FE00039F084E089833B832A83CE0101960995C9
:103FF0002396E2E00C947529CF93DF93C0910601DC
:10400000D091070122965DDF811581F0809129030F
:1040100087FF0CC0C0910401D091050122969EE15A
:1040200080E0915028F4DF91CF91089596E0F8CF89
:1040300029912115B1F38F5FF4CFCF93C82F811150
:1040400002C080E030C03DDF811521F0809129035E
:1040500087FD0EC08091060190910701FC01329608
:10406000089621912C1709F1E817F907D1F7E9CF44
:104070008C2F869586958695C03F18F7E0910401B0
:10408000F0910501E80FF11D228130E0C77081E059
:1040900090E002C0880F991FCA95E2F728233923C0
:1040A00081E0232B71F2CF91089581E0FCCF9C0138
:1040B000FC0132968FEF90E04191461751F08F3F0F
:1040C00019F4411101C0892F9F5F9630A9F78F3FE6
:1040D00009F40895280F311D87FD3A95F90162838F
:1040E00008959C01FC013296285F3F4F8191861311
:1040F00002C0DF011E92E217F307C1F70895FC0129
:10410000862F869586958695603F60F4E80FF11DB1
:10411000677021E030E001C0220F6A95EAF78281E2
:10412000822B82830895FC01862F8695869586953D
:10413000603F80F4E80FF11D677081E090E09C0122
:1041400002C0220F331F6A95E2F7B90160958281A0
:10415000682362830895CF93C82FB3DE6C2F811537
:1041600059F08091290387FF07C080910401909145
:104170000501C5DFCF910895809106019091070157
:1041800096DFF8CFCF93C82F9CDE6C2F811559F0A6
:104190008091290387FF07C0809104019091050158
:1041A000C2DFCF910895809106019091070199DFB8
:1041B000F8CF87DE811579F08091290387FF0BC046
:1041C000E0910401F091050132968EE1DF011D922C
:1041D0008A95E9F70895E0910601F091070132967A
:1041E00086E0F4CFDC01FB0111969C91119781814F
:1041F000981322C012968C911297811519F0928112
:1042000089131AC013968C911397811519F0938115
:10421000891312C015968C911597811519F0958107
:1042200089130AC014969C91911521F081E0248194
:10423000291303C080E001C081E0817008950895D2
:10424000FECF08958F5F80932601609123017091C6
:1042500024018091250190912601F2CF83E0809383
:104260002601609123017091240180912501909194
:104270002601E6CFE7CF089581E080932601609183
:104280002301709124018091250190912601D8CFBE
:10429000F3CF089591E0811101C090E09093250142
:1042A0006091230170912401809125019091260154
:1042B000C7CF809125010895809324016091230147
:1042C000709124018091250190912601B9CF8091B0
:1042D00024010895809323016091230170912401AA
:1042E0008091250190912601ABCF80912301089503
:1042F00008950895FECF089508950895F9CF08957B
:10430000CF93FADF0E940012F8DFC0E08C2F0E94EA
:104310003811892B31F4CF5FC530C1F780E0CF91E0
:10432000089581E0FCCFCF93DF93EC016BD08C1B21
:104330009D0BDF91CF91089585B7806885BF85B7C4
:10434000806885BF08951F921FB61F9211248F9316
:104350009F93AF93BF9380912003811113C08091ED
:104360006C0390916D03A0916E03B0916F03419621
:10437000A11DB11D80936C0390936D03A0936E03F8
:10438000B0936F03BF91AF919F918F911F901FBE0C
:104390001F90189580917403843031F10E94760447
:1043A0001092200388E190E020E40FB6F894A895DD
:1043B000809360000FBE2093600083B7817F84608C
:1043C00083BF83B7816083BF7894889583B78E7FDE
:1043D00083BF0FB6F894A8958091600088618093A0
:1043E0006000109260000FBE08950E94ED070C94CB
:1043F0007D0482E084BD93E095BD9AEF97BD8093E4
:104400006E0008952FB7F89480916C0390916D031E
:10441000A0916E03B0916F032FBF08952FB7F8944A
:1044200060916C0370916D0380916E0390916F03A6
:104430002FBF089578941F921FB61F9211248F9357
:104440009F93AF93BF9380916C0390916D03A09164
:104450006E03B0916F030196A11DB11D80936C0393
:1044600090936D03A0936E03B0936F03BF91AF91D0
:104470009F918F911F901FBE1F90189581E0809390
:10448000E00080E28093D8001092C9008FE19EE4A2
:104490000197F1F700C0000087E090EBDC0180930A
:1044A0007D0390937E03A0937F03B093800388E104
:1044B0009CE00FB6F894A895809360000FBE90938F
:1044C0006000FFCF88E19CE00FB6F894A895809338
:1044D00060000FBE90936000FFCF282FCB01BA0180
:1044E000309174033430D1F42F702093E9002FEF12
:1044F0003091E80035FD06C035ED3A95F1F7000042
:104500002A95B1F72091E80025FF08C040E050E06F
:10451000BBD18091E8008E778093E8000895BC01BC
:1045200043E050E082E0D9CFBC0146E050E082E0B9
:10453000D4CFBC0140E250E082E0CFCFCF93DF93F5
:10454000D82FC92FB6DE48E050E06D2F7C2F81E0D8
:10455000C4DF88E0ED2FFC2FA1E2B3E001900D92C3
:104560008A95E1F7DF91CF910895809173038111CE
:1045700007C011D368D38091E20084608093E20089
:10458000089510927303089577DE81E083CE6091E1
:10459000700381E0611101C080E060CE90917403EE
:1045A00081E0943009F080E06091700363CE42E0D6
:1045B00061EC81E06CD242E261EC82E068D29091E1
:1045C000740381E0943009F080E0609170033ACE8A
:1045D00080917603893081F148F4823009F495C0E6
:1045E000833009F456C0813041F008958A3009F4CF
:1045F0007FC08B3009F467C0089580917503813ABC
:1046000009F046C08091E800877F8093E8008091A0
:10461000790390917A03892B59F060E080E090E073
:1046200070E080D18091E8008B778093E800089556
:1046300068E081E293E0F4CF80917503813241F527
:104640008091790390917A03029710F58091E800A8
:10465000877F8093E8008091E80082FF15C09091E9
:10466000F3008091F200029731F48091F1008130E3
:1046700011F0863019F48091F1001EDE8091E8007F
:104680008B778093E80037C2809174038111E3CF68
:10469000089580917503813AD9F7809179039091BB
:1046A0007A03892BA9F78091E800877F8093E8003F
:1046B0008091E80080FFFCCFFCDD8093F1008091C9
:1046C000E8008E77DECF80917503813209F7809103
:1046D000790390917A03892BD9F68091E800877F3E
:1046E0008093E80008D280917703D4DD0C94ED0725
:1046F00080917503813261F68091E800877F809315
:10470000E800F9D180917803E5CD80917503813A75
:1047100009F0BECF8091E800877F8093E800809108
:10472000E80080FFFCCFE1DDC8CF84B7877F84BF7E
:104730000FB6F894A895809160008861809360001E
:10474000109260000FBE80E890E00FB6F89480935E
:104750006100909361000FBE9BCD1DD274D2E2EE3A
:10476000F0E08081846080837894DEC487E291E009
:10477000A3CB80917403853029F480917403853034
:1047800011F033CE089506DEBBDD8115B1F38091C3
:104790007203811591F362D00E94ED07EECF089568
:1047A0009A0140917B0350917C0300C0FC01D90128
:1047B0008F2F992783309105C1F068F481309105DE
:1047C00009F447C0029761F48BE390E024E934E0F8
:1047D0002D933C93089581329105E1F0829749F140
:1047E00080E090E020E030E0F3CFCF019927E13086
:1047F00059F08230910559F0E0E9F4E0892B81F716
:10480000849190E09F01E4CFE2E8F4E0F9CFEAE69A
:10481000F4E0F6CF89E090E026EA34E06115710516
:10482000B9F289E090E02FEB34E06130710581F25C
:10483000D7CF84E490E027E935E06115710541F2B6
:1048400086EB90E021EE34E06130710509F4C0CFD1
:10485000C7CF82E190E02FEC34E0BACF80E189BD90
:1048600082E189BD09B400FEFDCF8091D8008F7D23
:104870008093D8008091E00082608093E000809176
:10488000E00081FDFCCF0895AF92BF92CF92DF92FE
:10489000EF92FF920F931F93CF936C018B017A01DC
:1048A00049D1C82F811123C0E114F10439F0F70177
:1048B00080819181081B190BC80ED91EA12CB12C27
:1048C00001151105A1F08091E80085FD20C08091BF
:1048D000E8008E778093E800E114F10499F0F70185
:1048E000808191818A0D9B1D91838083C5E08C2FEF
:1048F000CF911F910F91FF90EF90DF90CF90BF90DD
:10490000AF90089517D18115F1F2C82FF0CFF601BD
:1049100081916F018093F10001501109FFEFAF1AEF
:10492000BF0ACECFFC019B0180917B0390917C0359
:104930008617970718F0672B61F0C90140E00097D0
:1049400071F441110CC08091E80082FF35C080E015
:1049500008958091E8008E778093E800EECF209153
:1049600074032115A9F12530A9F12091E80023FD58
:104970002DC02091E80022FDE6CF2091E80020FF25
:10498000DECF3091F3002091F200009719F028302B
:10499000310558F041E02830310509F040E0209120
:1049A000E8002E772093E800CACF41914093F100B0
:1049B00001972F5F3F4FE9CF80917403811541F03C
:1049C000853041F08091E80083FFBDCF81E00895FC
:1049D00082E0089583E00895FC019B0180917B03B0
:1049E00090917C038617970718F0672B61F0C90137
:1049F00040E0009771F441110CC08091E80082FF03
:104A000036C080E008958091E8008E778093E800BA
:104A1000EECF209174032115B1F12530B1F1209131
:104A2000E80023FD2EC02091E80022FDE6CF209172
:104A3000E80020FFDECF3091F3002091F2000097D4
:104A400019F02830310558F041E02830310509F0DF
:104A500040E02091E8002E772093E800CACF4491EF
:104A60004093F100319601972F5F3F4FE8CF80913F
:104A70007403811541F0853041F08091E80083FF97
:104A8000BCCF81E0089582E0089583E00895982FD7
:104A9000973028F08F708093E90081E0089590931B
:104AA000E900242F762F50E0981731F07091EC0038
:104AB0002091ED005091F00021FD02C09F5FE8CFF2
:104AC0003091EB003E7F3093EB003091ED003D7F65
:104AD0003093ED003091EB0031603093EB00709338
:104AE000EC002093ED005093F0002091EE0027FDA4
:104AF000E5CF80E008958091750387FF13C0809112
:104B0000E80082FF06C08091E8008B778093E80080
:104B10000895809174038111F2CF089580917403F8
:104B20008115D9F38091E80080FFF8CF8091E800EB
:104B30008E77ECCF2091E4003091E50095E6A90155
:104B40002091EC00822F817020FF06C08091E80048
:104B500080FF06C080E008952091E80022FD1AC081
:104B600080917403811589F0853089F08091EB0084
:104B700085FD0FC02091E4003091E50042175307F6
:104B8000F9F29A95E1F684E0089582E0089583E0D1
:104B9000089581E0089567D06ED0E0EEF0E0808166
:104BA00081608083E8EDF0E080818F77808319BC9D
:104BB000A7EDB0E08C918E7F8C9380818F7E808377
:104BC0001092730308950F931F93CF93DF934BD0ED
:104BD00052D0C8EDD0E088818F7788838881806843
:104BE000888388818F7D888319BC1092740310920A
:104BF0007003109272031092710300EE10E0F8013E
:104C000080818B7F808388818160888342E060E03F
:104C100080E03DDFE1EEF0E080818E7F8083E2EE98
:104C2000F0E0808181608083808188608083F801EA
:104C300080818E7F8083888180618883DF91CF919E
:104C40001F910F910895E8EDF0E080818F7E8083C1
:104C5000E7EDF0E080818160808384E082BF81E0C5
:104C600080937303B0CFE8EDF0E080818E7F808386
:104C70001092E20008951092DA001092E100089577
:104C80001F920F920FB60F9211242F933F934F93C1
:104C90005F936F937F938F939F93AF93BF93EF93A4
:104CA000FF938091E10082FF0AC08091E20082FFC1
:104CB00006C08091E1008B7F8093E10034D2809127
:104CC000DA0080FF18C08091D80080FF14C0809166
:104CD000DA008E7F8093DA008091D90080FF8FC048
:104CE00080E189BD82E189BD09B400FEFDCF81E08C
:104CF000809374033ADC8091E10080FF18C08091BA
:104D0000E20080FF14C08091E2008E7F8093E20079
:104D10008091E20080618093E2008091D8008062FF
:104D20008093D80019BC85E08093740330DC8091B7
:104D3000E10084FF28C08091E20084FF24C080E16C
:104D400089BD82E189BD09B400FEFDCF8091D80004
:104D50008F7D8093D8008091E1008F7E8093E10069
:104D60008091E2008F7E8093E2008091E20081607A
:104D70008093E20080917003811509F445C084E0BE
:104D8000809374030BDC8091E10083FF27C0809146
:104D9000E20083FF23C08091E100877F8093E100E0
:104DA00082E080937403109270038091E1008E7F03
:104DB0008093E1008091E2008E7F8093E2008091F9
:104DC000E20080618093E20042E060E080E05FDE2C
:104DD0008091F00088608093F000D6DBFF91EF9126
:104DE000BF91AF919F918F917F916F915F914F9103
:104DF0003F912F910F900FBE0F901F90189519BCE7
:104E000010927403BEDB77CF8091E30087FF02C06E
:104E100083E0B6CF81E0B4CF1F920F920FB60F920E
:104E20001124EF92FF920F931F932F933F934F9371
:104E30005F936F937F938F939F93AF93BF93CF9322
:104E4000EF93FF9309EE10E0F8018081C091EC0030
:104E50008F70C795CC27C795C82B108280EFE82E9E
:104E6000F12CF7018081877F808378941FD0F8012F
:104E70001082F701808188608083CF70F801C08341
:104E8000FF91EF91CF91BF91AF919F918F917F91C2
:104E90006F915F914F913F912F911F910F91FF90D3
:104EA000EF900F900FBE0F901F901895AAE2B0E000
:104EB000EBE5F7E2FCC185E793E0FC010196209168
:104EC000F100208323E08D379207B9F781DB8091D1
:104ED000E80083FF37C080917503909176039A3084
:104EE00088F5E92FF0E0EB51F54DA8C1803889F045
:104EF000823841F5809179038F70873018F580935F
:104F0000E9008091EB0085FB882780F91092E90089
:104F100006C080917203880F90917103892B909144
:104F2000E800977F9093E8008093F1001092F100E1
:104F30008091E8008E7722C0811115C0809177039F
:104F4000813001F18091E80083FF0AC08091E80080
:104F5000877F8093E8008091EB0080628093EB0074
:104F6000AA96E4E0C0C1823069F780917703811589
:104F700081F01092E9008091E800877F8093E8003B
:104F8000BADDE0CF81E0933009F080E080937203D6
:104F9000F0CF809179038F702FEF280F263090F695
:104FA0008093E9002091EB0020FFE3CF933031F4B0
:104FB0008091EB0080628093EB00DBCF9091EB005F
:104FC00090619093EB0021E030E0A90102C0440F12
:104FD000551F8A95E2F74093EA001092EA0080910B
:104FE000EB008860E8CF8111ADCF109177031F7778
:104FF0008091E3008078812B8093E3008091E8002A
:10500000877F8093E80077DD8091E80080FFFCCF08
:105010008091E30080688093E30083E0111101C078
:1050200082E0809374038ECF8058823008F08ACF5C
:1050300080917703909178038C3D53E0950791F52B
:1050400083E08A838AE289834FB7F894DE0113965E
:1050500020E03EE051E2E32FF0E0509357008491CE
:1050600020FF03C082958F703F5F8F708A30C0F041
:10507000895C90E08D939D932F5F243161F74FBF42
:105080008091E800877F8093E8006AE270E0CE01BB
:10509000019648DC8091E8008B778093E80052CF3E
:1050A000805DE7CF6091790370917A03AE014F5F25
:1050B0005F4F76DB8C01892B09F444CF8091E800A7
:1050C000877F8093E800B80189819A8185DCE2CFEF
:1050D000803809F037CF8091E800877F8093E8001F
:1050E000809170038093F10023CF81112BCF909199
:1050F0007703923008F026CF8091E800877F809375
:10510000E80090937003F7DC80917003811529F01B
:1051100084E0809374034BDA15CF8091E30087FD20
:10512000F7CF81E0F6CF0895CF9380917403811576
:1051300091F08091E900C091EC008F70C795CC2769
:10514000C795C82B1092E9008091E80083FDAEDE80
:10515000CF70C093E900CF910895DB018F939F93A7
:105160008ED0BF91AF91A29F800D911DA39F900DF6
:10517000B29F900D11240895992778E0880F991F08
:10518000961708F0961B881F7A95C9F780950895A1
:1051900087FB082E062687FD819567FD6195ECDF6C
:1051A0000EF4919507FC81950895AA1BBB1B51E154
:1051B00007C0AA1FBB1FA617B70710F0A61BB70B87
:1051C000881F991F5A95A9F780959095BC01CD012C
:1051D000089597FB072E16F4009406D077FD08D0AB
:1051E000E4DF07FC05D03EF4909581959F4F08952C
:1051F000709561957F4F0895A1E21A2EAA1BBB1BE3
:10520000FD010DC0AA1FBB1FEE1FFF1FA217B30792
:10521000E407F50720F0A21BB30BE40BF50B661FA8
:10522000771F881F991F1A9469F76095709580956C
:1052300090959B01AC01BD01CF010895EE0FFF1FBA
:105240000590F491E02D099405D0332312F48A1BC4
:105250009B0B10C0A29FB001B39FC001A39F700D14
:10526000811D1124911DB29F700D811D1124911D6E
:105270000895F0DFB7FF0895821B930B0895EADFCE
:10528000A59F900DB49F900DA49F800D911D11249A
:1052900008952F923F924F925F926F927F928F92DA
:1052A0009F92AF92BF92CF92DF92EF92FF920F93B5
:1052B0001F93CF93DF93CDB7DEB7CA1BDB0B0FB6BF
:1052C000F894DEBF0FBECDBF09942A88398848887C
:1052D0005F846E847D848C849B84AA84B984C88412
:1052E000DF80EE80FD800C811B81AA81B981CE0F09
:1052F000D11D0FB6F894DEBF0FBECDBFED010895EE
:10530000002E083090F0982F872F762F652F542F7E
:10531000432F322F22270850F4CF220F331F441F70
:10532000551F661F771F881F991F0A95B2F7002D1A
:10533000089597FD1094002E083098F00850232F00
:10534000342F452F562F672F782F892F912DF4CF8B
:1053500015949795879577956795579547953795C0
:1053600027950A95AAF71124002D08958F929F92F0
:10537000AF92BF92CF92DF92EF92FF92CF93DF93E3
:10538000EC01688179818A819B81611571058105B4
:10539000910521F464E279ED8BE597E02DE133EF9F
:1053A00041E050E09BD049015A019B01AC01A7EAC2
:1053B000B1E465DF6B017C01ACEEB4EFA5019401B3
:1053C000ABD0DC01CB018C0D9D1DAE1DBF1DB7FF09
:1053D00003C00197A109B04888839983AA83BB833E
:1053E0009F77DF91CF91FF90EF90DF90CF90BF90AC
:1053F000AF909F908F900895B9CF80E091E0B6CFA5
:10540000A0E0B0E08093000190930101A09302011D
:10541000B09303010895FC014150504030F00190D9
:105420000616D1F73197CF01089588279927089557
:10543000FB01DC0104C08D910190801921F44150E1
:105440005040C8F7881B990B0895FB01DC0102C08E
:1054500001900D9241505040D8F70895F999FECF30
:1054600092BD81BDF89A992780B50895A6E1B0E074
:1054700044E050E025C0A8E1B0E042E050E020C0A8
:10548000262FF999FECF92BD81BDF89A019700B4FD
:10549000021639F01FBA20BD0FB6F894FA9AF99A9D
:1054A0000FBE08950396272FECDFEADF252FE9DFF3
:1054B000242FE7CF0196272FE4DFE2CFDC01CB01D9
:1054C000FC01F999FECF06C0F2BDE1BDF89A319614
:1054D00000B40D9241505040B8F70895052E97FB47
:1054E00016F400940FD057FD05D086DE07FC02D0DD
:1054F00046F408C050954095309521953F4F4F4F49
:105500005F4F089590958095709561957F4F8F4F6F
:105510009F4F0895B7FFB3CEB2DE821B930B089561
:10552000F894FFCF1E061E0655065506AE06CB069E
:1055300046064606CF0642074F074F07AB12AE128C
:10554000B212B612BA12BE12C212C612CA12CE12CB
:10555000D212E41B531CEC1BB61BBA1BF01BBE1B68
:10556000F41B001CCA1B4C1CCE1B041CD21B081CA9
:105570002D1CD61B0C1C341CDC1B121C1A1CC21B41
:10558000F81BC61BFC1BE01B161C241C3D1C4A1CE4
:10559000B01BE81B5A1CF91CFE1C001D051D151D27
:1055A000151D151D151D151D151D151D151D071D79
:1055B0000B1D0E1D131D231D291D2D1D371F3D1FE6
:1055C000271F311F431F491F4F1F76279C27A227E4
:0E55D0009C27A227F3271428A22768287528F5
:1055DE00010000008002A002010102000C000C0C70
:1055EE0001191A1B1C1D1E1F202122280850011EE6
:1055FE000A14010000010067219E22992294228F35
:10560E0022E200E900EA00B500B600B700CD008343
:10561E0001CC008A01920194012102230224022569
:10562E0002260227022A02B300B4006F0070009F08
:10563E0001CB019F02A002E200E900EA00B500B62C
:10564E0000B700CD008301CC008A019201940121A4
:10565E0002230224022502260227022A02B300B4E4
:10566E00006F0070009F01CB019F02A002F0F1C6F7
:10567E006766369431373534979633909192939579
:10568E000001020202020606060909090909090FAC
:10569E000F0F0F0F0F1515151819191919191919AB
:1056AE001919192324252525252525FD1AFF1A0A42
:0456BE001B221B0090
:00000001FF
