:10000000EDC2000023C3000021C300001FC3000095
:100010001DC300001BC3000019C3000017C300006C
:1000200015C3000013C300000C9457260C9424271A
:100030000C94B3210BC3000009C3000007C30000E8
:1000400005C300000C94E11901C30000FFC20000C9
:100050000C94041A0C942A22F9C20000F7C2000082
:10006000F5C20000F3C20000F1C20000EFC20000C0
:10007000EDC20000EBC20000E9C20000E7C20000D0
:10008000E5C20000E3C20000E1C20000DFC20000E0
:10009000DDC20000DBC20000D9C20000D7C20000F0
:1000A000D5C20000D3C20000D1C2000029001E004A
:1000B0001F0020002100220023002400250026002C
:1000C00027002D002E0031002B0014001A0008001C
:1000D000150017001C0018000C00120013002F0060
:1000E00030002A00E00004001600070009000A00A2
:1000F0000B000D000E000F0033003400000028003C
:10010000E10000001D001B000600190005001100A1
:1001100010003600370038002152E5000000E200F0
:10012000E300000000002C0000000000000035008B
:100130000000E700E600000029003A003B003C0018
:100140003D003E003F0040004100420043004400AB
:1001500045004900390014001A0008001500170076
:100160001C001800460047004800520030005300B1
:10017000E000AA00A900A800B0000A005500540041
:100180004A004B0050004F0000002800E100000032
:100190001D001B00060019000500570056004D0009
:1001A0004E0051000000E5000000E200E300000006
:1001B000000022520000000000004C000000E70098
:1001C000E6000000137020782178227823782478C4
:1001D000257826782778287829782A782B782C781B
:1001E0002E782F783078317832783378000000001C
:1001F00000000000000000000000000000000000FF
:1002000000000000000000000000000000000000EE
:10021000000000000000007C000000000000000062
:1002200000000000000000000000000000000000CE
:1002300000000000000000000000000000000000BE
:100240000000000000002D78000000000000000009
:100250001E0F0500047F3F1F643214643214783C83
:100260001E1E140A052223252628292A2C2D2F306C
:1002700032333536383A3B3D3E4042434547494AA2
:100280004C4E5051535557595A5C5E6062646668D3
:10029000696B6D6F71737577797B7D7F81838587DE
:1002A000898A8C8E90929496989A9C9E9FA1A3A5E1
:1002B000A7A8AAACAEAFB1B3B4B6B8B9BBBCBEBF09
:1002C000C1C2C3C5C6C7C9CACBCCCDCED0D1D2D28C
:1002D000D3D4D5D6D7D7D8D9D9DADADBDBDBDCDC97
:1002E000DCDCDCDDDDDDDDDCDCDCDCDCDBDBDBDA4F
:1002F000DAD9D9D8D7D7D6D5D4D3D2D2D1D0CECDBA
:10030000CCCBCAC9C7C6C5C3C2C1BFBEBCBBB9B8C6
:10031000B6B4B3B1AFAEACAAA8A7A5A3A19F9E9C4B
:100320009A98969492908E8C8A89878583817F7D16
:100330007B79777573716F6D6B6968666462605EF7
:100340005C5A5957555351504E4C4A4947454342C0
:10035000403E3D3B3A3836353332302F2D2C2A295A
:100360002826252322FFAA7F554000010101010113
:10037000010101010202020202020202020303035E
:10038000030303030304040404040404050505052E
:1003900005060606060607070707070808080809EE
:1003A0000909090A0A0A0B0B0B0C0C0C0D0D0D0E9A
:1003B0000E0E0F0F0F10101111111212131314142F
:1003C000151516161717181819191A1A1B1B1C1DA4
:1003D0001D1E1E1F202021222223242425262627FD
:1003E0002829292A2B2C2D2D2E2F3031323233342F
:1003F00035363738393A3B3C3D3E3F404142434435
:1004000045464748494A4C4D4E4F50515354555616
:1004100058595A5B5D5E5F616264656668696B6CC2
:100420006D6F7072737577787A7B7D7E808283853D
:1004300087888A8C8E8F91939596989A9C9EA0A27D
:10044000A3A5A7A9ABADAFB1B3B5B7BABCBEC0C287
:10045000C4C6C9CBCDCFD1D4D6D8DBDDDFE2E4E74B
:10046000E9EBEEF0F3F5F8FAFDFF1603580044004F
:100470003600300020005200650076002000330076
:1004800000000C03580049005500440049000000DA
:100490000403090409023B00020100A0FA09040058
:1004A000000103010100092111010001224400079C
:1004B000058103080001090401000103000000098F
:1004C000211101000122B60007058203200001125C
:1004D000010002000000084478636301000102008B
:1004E0000105010902A10185020901A100050919FF
:1004F00001290815002501950875018102050109EA
:100500003009311581257F95027508810609381556
:1005100081257F950175088106050C0A3802158131
:10052000257F950175088106C0C005010980A101DC
:10053000850319012AB700150126B700950175102A
:100540008100C0050C0901A101850419012AA0023E
:10055000150126A002950175108100C0050109064C
:10056000A1018506050719E029E715002501950871
:10057000750181020507190029EF1500250195F085
:10058000750181020508190129059505750191027A
:10059000950175039101C005010906A1010507191F
:1005A000E029E7150025019508750181029501757F
:1005B0000881010507190029FF150026FF0095068F
:1005C0007508810005081901290515002501950503
:1005D00075019102950175039101C00011241FBEA0
:1005E000CFEFDAE0DEBFCDBF04B603FE18C08091C6
:1005F000830390918403A0918503B0918603873093
:10060000904BA740B04B59F410928303109284038F
:100610001092850310928603E0E0F8E3099511E05B
:10062000A0E0B1E0EAEDF5E502C005900D92AA3E2A
:10063000B107D9F723E0AAEEB1E001C01D92A338BB
:10064000B207E1F70E947D120C94A12AD9CC229A1C
:100650002A98089522982A980895CF93DF93D82F47
:100660004CD1C82F882319F0D1FF05C0F0DF8C2FA3
:10067000DF91CF910895EEDFFACF8330B8F4653083
:10068000A8F44E3098F450E09EE0699F400D511D53
:100690001124FA0196E4899FE00DF11D1124EE0F5B
:1006A000FF1FE455FF4F85919491089581E090E0FC
:1006B0000895E3CF089581E00895FDCF0895FBCF1D
:1006C000089581E00895F7CF0895F5CF0895FDCFFF
:1006D000089508950895FDCF089508950895A6E01A
:1006E000B0E0E5E7F3E00C946F2949835A839E83D9
:1006F0003091F10189819A81311117C03E813323F4
:1007000089F0222379F092D5182F682F89819A8158
:100710006CD569817A81812F0E94600F2696E3E073
:100720000C948B2973D5182FF4CF80D569817A81E9
:10073000F3CFFC01262F4081518162817381848136
:100740009581CDCFCF93DF93EC0161E0F2DFBE0165
:10075000B4DF882349F061E0CE01EBDFBE01AFDFFB
:100760008170DF91CF91089580E0FACF0F931F93AE
:10077000CF93DF93EC0160E0DCDF8C01BE01AADFE8
:10078000BE01C801A8DFDF91CF911F910F9108959D
:1007900021E030E0A90102C0440F551F8A95E2F71D
:1007A000CA015CC4CF93C82F81E090E00C2E02C038
:1007B000880F991F0A94E2F70E94510D8C2FE8DFF1
:1007C000CF91089581E00895FDCF0895FBCF08955E
:1007D000CF93C82FFBD38C2FF7DF8C2FF7DF2FEFB2
:1007E00084E39CE0215080409040E1F700C000008D
:1007F000CF91089581E0ECDF0C944E2280E0E8DF99
:100800000C9472220F931F93CF93DF938C0161E0BE
:1008100090DFEC01F801858181110E94DD18B8019B
:10082000CE0151DF811106C080E0DF91CF911F9191
:100830000F910895B801CE014ADF8823A9F3B801CA
:10084000CE010E94AF19882379F3B801CE010E942E
:100850002C1F882349F3B801CE010E94861B8823F0
:1008600019F3B801CE010E945E1B8823E9F2B8019A
:10087000CE010E9493128823B9F2B801CE010E94E2
:100880006010882389F2F8018581882361F0C330E4
:10089000FCE7DF07D9F050F4C115ECE7DE07A1F063
:1008A000C130DC47A9F0C8010CDFBFCFCB358CE7E6
:1008B000D80799F0CC35ECE7DE0761F0CA35DC47A4
:1008C00091F70E94150DEFCF95DFAECF0E94490D35
:1008D00095DFAACF0E940D0DE6CF0E94170DE3CF42
:1008E000FCDE0E948A2180E00E9492190BC00E94C7
:1008F000E7180AD0F3DE0C948E2181E00895089564
:10090000ACCE089580E0FCCF0E947B1FF9CFCF933F
:100910000E947B1FC82F8091EC018C1771F0C0934F
:10092000EC010E941E226093ED017093EE01809312
:10093000EF019093F0018C2FE3DFCF910895ADE0AC
:10094000B0E0E5EAF4E00C947029488759876A879B
:100950007B878C879D8791118BD71F8286E0FE0154
:100960003896DE01119601900D928A95E1F78D81FE
:1009700081110CC029813A814B815C816D817E811E
:100980008F81C6D62D96E2E00C948C29CE0101967B
:10099000D9DE8111EFCFF6CFFC012481213019F48B
:1009A0008081918174C40895662321F00E94E31C24
:1009B0000C94AE1D0E94351DFBCFCF93C82F88230A
:1009C000B9F08238B9F40E948A1F81FD11C089E311
:1009D0000E94B720D8D72FEF87EE93E021508040B8
:1009E0009040E1F700C0000089E30E94CE20CBD701
:1009F000CF910895833899F40E948A1F80FDF8CF23
:100A000083E50E94B720BFD72FEF81EE94E02150FD
:100A100080409040E1F700C0000083E5E6CF8438D5
:100A200099F40E948A1F82FDE3CF87E40E94B720D9
:100A3000AAD72FEF81EE94E0215080409040E1F75B
:100A400000C0000087E4D1CF8CEF8C0F813A68F4AE
:100A50008C2F0E942C20882321F08C2F0E94CE20E6
:100A600092D78C2F0E94B720C2CF80E28C0F8830A3
:100A700040F4C77081E001C0880FCA95EAF7DBD661
:100A8000B6CFEBE5EC0FE33040F4F0E0E959FE4F70
:100A9000808190E00E94BD1FABCFE8E5EC0FEB3109
:100AA00050F4F0E0EE0FFF1FEF5CFE4F808191816C
:100AB0000E94E41F9DCF83E38C0F833108F098CF11
:100AC00061E08C2F71DF94CF882309F44DC0823808
:100AD00061F40E948A1F81FF47C089E30E94B7200A
:100AE00052D789E30E94CE204EC7833851F40E942A
:100AF0008A1F80FF39C083E50E94B72044D783E571
:100B0000F1CF843851F40E948A1F82FF2DC087E400
:100B10000E94B72038D787E4E5CF9CEF980F913A31
:100B200008F390E2980F983048F4877091E001C084
:100B3000990F8A95EAF7892F84D6D6CF9BE5980F2F
:100B4000933020F490E080E00C94BD1F98E5980F5E
:100B50009B3120F490E080E00C94E41F93E3980F25
:100B6000933110F460E020CF08951F93CF93DF936B
:100B7000182FEB0122DF209731F4812FA5DFDF91C1
:100B8000CF911F9108958FE99FE00197F1F700C081
:100B900000002197F0CF70E060E0893311F460E548
:100BA00070E0E3CF882311F046D6EDC60895882380
:100BB00011F047D6E8C60895B0E0A0E0E2EEF5E017
:100BC0000C9469296C01D62FC72FFC011581068171
:100BD00002950F7026D6E82E8823E9F0E12E112326
:100BE000D1F08C2F807F803461F080E28D0F8830CF
:100BF000F8F08C2F807E803221F4D230C8F00023B0
:100C0000B9F08091300382FF13C082E0E0D609D6AC
:100C100091E0E82EE926BC2EB2949FE0B922FBE0D9
:100C2000FB1580F1EB2DF0E0ED55F54D0C942F29DF
:100C3000E12CF1CF0C2F0F70C07F11F00295007FD7
:100C4000112381F0002349F080E28D0F883010F0ED
:100C5000D11105C0802FEFD596D68D2F40C0802FA3
:100C6000FAD5FACF8D2F30DF002361F080E28D0FAF
:100C7000883010F0D11103C0802FE3D502C0802F3F
:100C8000F0D581D6EB2DE850FF0B349708F04CC11E
:100C90000E947B1F35DECDB7DEB7E9E00C948529D5
:100CA0002C2F2F70F22EC07FC03219F0F29480EFFB
:100CB000F822DD2341F0D13081F1112309F439C04C
:100CC0000023C9F0CACF8091300382FD10C01123E8
:100CD00041F0FF2019F08F2DAED555D680E06DDEA6
:100CE000D1CF80E0F1DEFF2069F28F2DC6CF112336
:100CF00059F0011103C08F2D55DFC4CF013009F029
:100D0000C1CF8F2DC9D5BECF0111BCCF8F2D4FDFE5
:100D10008F2DCDD58F2DB2D5B5CF112321F0063033
:100D200008F0B0CFE8CF053008F0ACCF8F2D3FDF13
:100D3000A9CF0023D9F3D93349F43FEF87EE93E0ED
:100D4000315080409040E1F700C000008D2FBCDEA4
:100D500099CF8C2F86958695837069F0813009F044
:100D600091CF8D2F9C2F9370111102C080E090E0E5
:100D70000E94E41F87CF8D2F9C2F9370111102C00A
:100D800080E090E00E94BD1F7DCF612F8D2F0CDE93
:100D900079CF8C2F837081F5111174CF4D2F42952F
:100DA00046954770440F440F2D2F2F7030E0042ECE
:100DB00002C0220F331F0A94E2F790E080E0D4FFD4
:100DC00009C08FE090E002C0880F991F4A95E2F7B2
:100DD00080959095C695C695C370822B932BC23093
:100DE00039F040F4C13011F042D14CCF39D14ACF63
:100DF00045D148CF33D146CF8695112311F08C2FA2
:100E00008170882309F43ECF4D2F42954695477057
:100E1000440F440F2D2F2F7030E0042E02C0220FFC
:100E2000331F0A94E2F790E080E0D4FF09C08FE01E
:100E300090E002C0880F991F4A95E2F7809590953F
:100E4000C695C695C370822B932BC23039F040F4FF
:100E5000C13011F067D116CF5ED114CF6AD112CF55
:100E60001AD110CFCF70112321F08C2F28D18D2FC4
:100E700043CF8D2F9CDE8C2F30D104CFD23F39F160
:100E800060F4D03FB9F0D13F81F0112309F43CC0A8
:100E90000111E3CE8C2F8F711EC0D33FF1F0D43FF0
:100EA000A1F78091300382FD20C08C2F8F71112318
:100EB00019F311C0112339F0053008F0E3CE8C2F5F
:100EC0008F711BD1DFCE063008F0DCCEF8CF8C2F2F
:100ED0008F711111D1CFF3D0D5CE112321F08C2FEA
:100EE0008F71E3D0CFCEDED0CDCE112329F063E0D9
:100EF0008C2F8F7155D5C6CE81E069D5023008F4AC
:100F0000C1CE82E064D5BECE002359F0D93309F0BA
:100F10001DCFEFEFF7EE23E0E150F0402040E1F786
:100F200013CF8C2F8F71A8CFEE2009F4B4CE75D4D7
:100F300080FDB1CEF60115826AD4C1D0C60117D0AA
:100F400066D4CBD0A8CE0F931F93CF93DF93EC0141
:100F5000688179818D81A4D18C01F2D07ED0B801D5
:100F6000CE012ADEDF91CF911F910F910895CF938B
:100F7000DF93EC018C81882381F0CE0143DC811169
:100F80000FC04FD4882349F08D81882331F08091A0
:100F9000300382FF02C082E01AD5DF91CF9108951D
:100FA000CE01D1DFCE01E2DBF8CF90E080E00E94FD
:100FB000BD1F90E080E00E94E41F5AD4E4D40E9458
:100FC000C71D0C94AE1D0E94E520EFCF41D4FBCF8E
:100FD00092959F70963091F058F4925F9F70923086
:100FE00058F4803F19F030F4883E30F481E00895E1
:100FF0009A5FF4CF843FD1F380E00895883EB0F348
:10100000813FD1F7F3CFFC012481222321F080819D
:1010100091813DD1DDCF80E00895A6E0B0E0E3E12D
:10102000F8E00C9470292696E2E00C948C29A7E055
:10103000B0E0EDE1F8E00C9470292796E2E00C9422
:101040008C290895FECF0895FDCF0895FADFFCDFC7
:10105000909319028093180208950895F7CF089588
:101060002091180230911902822B932BEFCF2091FF
:1010700018023091190282239323E8CF209118029D
:101080003091190282279327E1CFDBCF0895FDCF5E
:101090000895D7CF0895FDDFFADF9093170280936C
:1010A0001602089590E080E0F6CF21E030E0A9013B
:1010B00002C0440F551F8A95E2F7CA01ECCF21E028
:1010C00030E002C0220F331F8A95E2F780911602AA
:1010D00090911702822B932BDECF21E030E002C0EB
:1010E000220F331F8A95E2F72095309580911602E2
:1010F0009091170282239323CECF21E030E002C0EB
:10110000220F331F8A95E2F7809116029091170201
:1011100082279327C0CF2091160230911702822B8D
:10112000932BB9CF2091160230911702822393237B
:10113000B2CF209116023091170282279327ABCFAE
:101140000895262F277091E001C0990F2A95EAF79C
:1011500023E0769567952A95E1F7660F771F660F6E
:10116000771FFA01E60FF71F50E040E0682F70E0AC
:101170008191DF0111979B01042E02C036952795BE
:101180000A94E2F7217021952827292328272C93F8
:101190004F5F5F4F4430510559F70895A82FA7704E
:1011A00023E0969587952A95E1F7880F991F880F78
:1011B000991FFB01E80FF91F50E040E080E021910A
:1011C00030E00A2E02C0369527950A94E2F7217086
:1011D0003327042E01C0220F0A94EAF7822B4F5FB7
:1011E0005F4F4430510559F70895262F953068F424
:1011F0008E3058F4682F70E08EE0989F600D711D5E
:10120000112442EF51E0822F9CCF0895292F953071
:1012100058F48E3048F490E062EF71E03EE0239F96
:10122000800D911D1124BACF80E00895B0E0A0E0B8
:10123000ECE1F9E00C9469297C010091160210910F
:1012400017028091180290911902082B192BCFE0F8
:10125000D0E0CC24C394D12CBC2EC6010C2E02C0ED
:10126000880F991F0A94E2F780239123892B49F470
:10127000219790F7B12C8B2DCDB7DEB7E9E00C9418
:101280008529B7018C2F27D6019791F3F4CFCF93FF
:10129000DF93EC01CBDFBE011ED6DF91CF91089525
:1012A0001F93CF93DF93EB019091F101992331F0DC
:1012B000CB01EDDFDF91CF911F910895882351F08D
:1012C000CB01B4DF182F682FCE018FDFBE01812F35
:1012D00002D6F0CFCB019ADF182FF8CF1F93CF9310
:1012E000DF93C0911A0217E080911B028C1304C097
:1012F000DF91CF911F910895D0E01C9FF0011D9FB9
:10130000F00D1124E45EFD4F208131814281538133
:101310006481758186818BDE2196C770E5CF20912F
:1013200054023091550240915602509157026091FB
:1013300058027091590280915A0279CECF93DF936F
:1013400080915A02807F09F04BC080915902882316
:1013500009F446C0E0911A0250911B02C091550257
:10136000D0915402609156027091570247E05E1787
:10137000B9F18E2F90E0E49FF0011124E45EFD4F5F
:101380002481222381F1489FF001499FF00D11240F
:10139000DF01A45EBD4F11962C9111972C1323C031
:1013A0002C912D1320C015962C91159721111BC03F
:1013B00012962D913C91261B370B283C310598F451
:1013C00080915A028F70806180935A02EE5DFD4FCA
:1013D00080818F708061808384E592E0C8DD7EDF4C
:1013E000DF91CF910895FC013196E770C0CF482F6F
:1013F00020911A0290911B0257E0291302C080E04D
:10140000089530E0529FF001539FF00D1124E45EE7
:10141000FD4F8181681306C08081481303C0858118
:101420008111EECF2F5F3F4F2770E7CFA4E1B0E0EF
:10143000ECE1FAE00C9466298C0186E0F801DE010B
:101440001F9601900D928A95E1F7F8018481E5805D
:1014500094E5A92E92E0B92E9091580291111AC0EC
:101460008823A9F0EE2089F0C801CDDDF82E88236D
:1014700061F087E0F801D50101900D928A95E1F7BE
:10148000C5018ADA5BDF4BDF59C0C80170DDFF247C
:10149000F39454C0C080D18082809380F090590230
:1014A0002091560230915702A401421B530BFF209A
:1014B00009F4E9C0483C510508F09CC0882309F4B0
:1014C0003DC09091550280915A02282F207F09F04B
:1014D00056C09D1114C090915402C91210C0E11061
:1014E00048C08F70806180935A0219DF84E592E0D2
:1014F0003EDD80915A02F8018683F12C1FC0E11075
:1015000038C06D2D8C2D73DF6D2D8C2D70DFE82E86
:101510008111F3CFCF86D88A8F859889B8DE292F9D
:1015200022952F70243078F49F702230A0F09923F8
:10153000B1F0F8019681907F91F4FE2C8F2D649686
:10154000ECE00C9482292A5F2F70223060F0C801F1
:101550000EDDEF2CF2CF992311F0882371F3805E1A
:10156000883058F3F4CF803F40F3815F833078F7C1
:10157000E4CF80915A02816080935A02BECF9D11C0
:1015800012C090915402C9120EC0E1100CC08683A3
:10159000C801EDDC87E0F801A4E5B2E001900D920E
:1015A0008A95E1F770CFC8012EDD882309F46DCF4D
:1015B000EE2009F46ACF80915A02803280F02091A7
:1015C000540230915502398728879B868A869091EC
:1015D00058029C871D868E87CE010896C8DC87E05E
:1015E000F801A4E5B2E001900D928A95E1F7A6DE3C
:1015F00096DE4DCF90915A02292F207F89F4682DD5
:101600009A8A898AA6017A899E2D07DD84E592E06F
:10161000AEDC87E0F50111928A95E9F780DE6DCFA7
:10162000882309F48BCF809155028D110FC08091D2
:101630005402C8120BC0E11009C09683C80197DCA0
:1016400087E0F50111928A95E9F778CFC801DBDCD4
:10165000882309F41ACFEE2009F417CF80915A029B
:10166000803208F4BCCF20915402309155023A8365
:1016700029839C828B82909158029D831E828F8346
:10168000CE010196ABCF483C5105A8F5882309F45B
:10169000FECEFE2CEE2009F4F8CE809155028D117D
:1016A0001EC080915402C8121AC080915A0280FD57
:1016B0000DC0982F907F51F08683903F09F468CF3A
:1016C000982F907F905F8F70892B61CF87E0F80112
:1016D000A4E5B2E001900D928A95E1F72FCFC80101
:1016E00092DC81117CCF80915A02816080935A02F2
:1016F000C8013DDC23CF682D9A8A898AA6017A89A0
:101700009E2D8BDC87E0F50111928A95E9F7BBCE1F
:10171000AEE0B0E0EEE8FBE00C946F292887398753
:101720004A875B876C877D878E87CE0108967EDE31
:101730008823A9F06C85662339F0288539854A8588
:101740005B857D858E8573DC17E080911A02909110
:101750001B0289133BC02E96E3E00C948B2987E093
:10176000FE013896DE01119601900D928A95E1F7FF
:101770008C85882349F320911B0230E0C901019632
:101780008770992740911A024817190691F097E03F
:10179000929FD001939FB00D1124A45EBD4FFE0116
:1017A000319601900D929A95E1F780931B0296DD98
:1017B000CBCF0CDC10921B0210921A0287E0E4E5FA
:1017C000F2E0DF011D928A95E9F7BECF819FC0014B
:1017D0001124845E9D4F2ADE882309F4BCCFE0915A
:1017E0001A021E9FF0011124E45EFD4F2081318119
:1017F0004281538164817581868119DC80911A024E
:1018000090E001968770992780931A029ECF80916D
:1018100083028695869586950895809183028770C8
:10182000089590918302977081E009F480E0089513
:101830008091AF0208959091AF02892B8093AF02FF
:10184000089580959091AF0298239093AF020895E8
:101850001092AF0208959091AE02892B8093AE0250
:10186000089580959091AE0298239093AE020895CA
:101870001092AE0208950895FECF089590918402CB
:10188000292F282329F08095892380938402F4CF7F
:1018900008950895FECF089590918502292F282359
:1018A000281721F0982B90938502F4CF08959091FA
:1018B0008502292F282329F080958923809385028A
:1018C000E9CF089580918502882321F01092850246
:1018D00080E0E0CF0895CF93C091AF028091AE0237
:1018E000C82B80918502882329F0C82B0E940B20E9
:1018F0008111E8DF8C2FCF910895CF93DF93C091B2
:101900000601D0910701E7DF8883C0910601D091DD
:10191000070148E050E06BE772E0CE010E942F2AF9
:10192000892B59F088E0FE01ABE7B2E001900D92FF
:101930008A95E1F7CE010E948C1FDF91CF91089527
:10194000CF93DF93C0910401D0910501C4DF898357
:10195000C0910401D091050140E250E06BE572E0D6
:10196000CE010E942F2A892B59F080E2FE01ABE5BF
:10197000B2E001900D928A95E1F7CE010E94991F85
:10198000DF91CF9108950E94741F882329F08091E0
:101990002F0387FF01C0D4CFB0CF0895FECF0895A5
:1019A0009091300392FF0EC098E0899F900111241E
:1019B000622B6093830283DB8091830286958695F8
:1019C0008695ECCF7CCB1092830280E0E7CF90919C
:1019D00083028095892380938302282F277059F4EE
:1019E000891749F09091300392FF05C0869586953E
:1019F000869573DBE8CF08959091300392FB222700
:101A000020F9281749F080FB92F9909330038FE278
:101A100093E04BD082E0DBCF08958091300382FBCE
:101A2000882780F991E08927E7CF81E0E5CF80E042
:101A3000E3CF60E070E0CB0114C460E070E0CB0164
:101A40000AD4F7CFA4E0B0E0E8E2FDE00C947029FE
:101A500049D354D31C82CE01049667D381E090E031
:101A600090931902809318026CD31A8219828A818A
:101A700084618A83CE01019675D31B82CE010396C1
:101A800083D35AD6DADF2496E2E00C948C29DACF9D
:101A900008953AC3089527C308953CC308954BC3DE
:101AA00008954FC3089552C308955CC3089561C358
:101AB00008956AC308956EC30895ADC30895D7C34A
:101AC0000895A6E0B0E0E7E6FDE00C946E290E94E0
:101AD00012228C018091B0029091B102801791077F
:101AE00081F019821A820E941222682F49815A813C
:101AF000792F80E090E00E949F041093B102009340
:101B0000B0022696E4E00C948A290E941E2260937B
:101B1000C0027093C1028093C2029093C30260938B
:101B2000BC027093BD028093BE029093BF020895E1
:101B300008950895FDCF08950895FEDFFBCF089521
:101B4000FECF08950895FEDFFBCF8EE590E1E6D449
:101B5000F0DFF3CF81E00895FDCF0895FBCF089526
:101B6000089508950895FCDFFCDFFCCF94DF811118
:101B700001C08DDF84EC92E090DF8FE293E093DF91
:101B80000E945C1B8CDF6ADA80911602909117022A
:101B90007ECA0E94092229D4E9DF0E947F040E94A4
:101BA000F51A0E94E7180E941A18CDCFA6E0B0E0FF
:101BB000ECEDFDE00C946429CFDF81110DC081DFD5
:101BC0000E94DE180E94F41A0E94E91D0E948704F8
:101BD0002696EEE00C9480291AD422EB822E22E085
:101BE000922E640110E0F601E190F1906F01812FD7
:101BF00049D31F5F153009F447C0E816F90699F379
:101C00008091C40281FD47D3A9DF782E10E06624BD
:101C10006394812F37D37C01F401A190B1904F01DF
:101C20008A159B0561F100E0CC24C394D12CAE242D
:101C3000BF24C5018C219D21892BC1F07720B1F0F3
:101C400009831A830E9412229C838B836D8221E078
:101C5000C7018C219D21892B09F420E049815A81FB
:101C60006B817C818D81922F0E949F040F5FCC0C31
:101C7000DD1C0E30F1F6F4013297F182E0821F5F35
:101C8000153039F642DF9CCFE816F90609F0B8CFD7
:101C900096CF1F93CF93DF9320D1EC01C11580E540
:101CA000D807F0F5C11580E4D80708F09AC0C03E07
:101CB000D10520F5CD3CD10508F082C0C83AD10548
:101CC00078F4C53AD10508F073C0C130D10519F1D7
:101CD000209709F1C430D105F0F4D0E0C0E01BC07A
:101CE000C33CD105D0F7C85AD0E0CC0FDD1FC65990
:101CF000DE4F0990D881C02DD4640DC0C11580E29B
:101D0000D80708F0CDC0C11581E0D80708F05AC047
:101D1000C83ED10510F7CE01DF91CF911F910895F4
:101D2000C03682E5D80718F5C03482E5D80708F038
:101D300068C0C03282E5D80708F05CC0C11582E5F2
:101D4000D80708F493C02C2F2695269580E2289F6B
:101D5000900111248C2F8370C1E0D0E002C0CC0F21
:101D6000DD1F8A95E2F7C22BD32BDD68D4CFC03AB2
:101D700082E5D80760F4C03882E5D80708F456C079
:101D8000CF71D0E0DC2FCC27C46FD06AC4CFC03C69
:101D900082E5D80708F45FC0C03E82E5D80708F0A6
:101DA0009CCFDC2FCC27CC27DF71C06FD06AB3CF9C
:101DB000C55AD0E0C056DE4FC881D0E0D064ABCF6A
:101DC000D065A9CF8D2F2BD1182FCE01992785D083
:101DD000C12FD0E0DC2FCC27CC27DF71C82BD92B2B
:101DE0009ACFCE01992779D0CC27DF70C82BD92B79
:101DF000D06A91CFCF71D0E0DC2FCC27C16FD06AF1
:101E00008ACF2C2F26952695277080E2289F900157
:101E100011248C2F8370C1E0D0E002C0CC0FDD1FF5
:101E20008A95E2F7C22BD32BDC6875CF2C2F269531
:101E30002695277080E2289F900111248C2F8370B3
:101E4000C1E0D0E002C0CC0FDD1F8A95E2F7C22BC3
:101E5000D32BDA6860CF8C2F8F71E1D0C82FD0E000
:101E6000DC2FCC27CC27DF71D06255CF8C2F8F7120
:101E7000D6D055E0D695C7955A95E1F7CF70D0E00A
:101E8000DC2FCC27282F30E084FF06C044E0220F4F
:101E9000331F4A95E1F73327C22BD32BD0693BCFB1
:101EA0008D2F8F71BCD0182FCE01992716D0C12F3E
:101EB000D0E0DC2FCC27CC27DF71C82BD92BD4CF97
:101EC000462F753028F46E3018F4672F0C945903A0
:101ED00090E080E00895F4DFDCCE82389105B9F11E
:101EE000B0F48133910509F47DC048F4893291053D
:101EF00009F46DC08A32910509F47BC008958533D9
:101F0000910509F45FC08933910509F10895833E75
:101F10009105D9F138F4803E910529F1823E910571
:101F200079F10895863E9105D9F1873E910509F42E
:101F30003EC0843E910541F52091300321FF24C02D
:101F400080912F0384FD19C087EE90E008952091C1
:101F50002F03237009F05AC02091300323FF14C0CF
:101F600089E290E0089520912F0320FD38C0309140
:101F7000300330FF09C024FF43C090E080E00895A3
:101F800020912F0322FDF7CF089520912F0322FDEA
:101F90003AC03091300330FD39C024FFF5CFEDCF8A
:101FA00020912F0323FFF0CF24FDE7CFCDCF209149
:101FB0002F0323FD2EC03091300331FFEECF84EE8E
:101FC00090E0089520912F0325FFDECFC9CF209107
:101FD0002F0325FD21C02091300323FFD5CF89E3B6
:101FE00090E0D2CF20912F0326FFCECF8AE290E05F
:101FF000089520912F0326FFC7CF81E390E0089535
:1020000083EE90E0089582EE90E0089580EE90E0F7
:10201000089586EE90E0089585E390E0089590910C
:102020002F0392FF10C041E0282F2471243009F0C3
:1020300040E031E0282F2871283009F030E04317C4
:1020400011F02CE0822793FF10C041E0282F24716B
:10205000243109F040E031E0282F2871283109F0BF
:1020600030E0431711F02CE082273091300330FF2D
:1020700010C051E0282F2171213009F050E041E0DB
:10208000282F2871283009F040E0541711F029E07A
:10209000822731FF10C041E0282F2171213109F042
:1020A00040E031E0282F2871283109F030E0431753
:1020B00011F029E0822794FD877E089580E008953D
:1020C000CF939C01205E3245C1E02032310538F4C7
:1020D000FB01C581C11103C08F710E94D2038C2FF7
:1020E000CF910895089590E080E00E94522A21E067
:1020F000833E9E4F09F020E0822F089563EE7EEF2D
:1021000090E080E00C94712A6FEF7FEF90E080E028
:102110000C94712ACF93DF93EC0182E090E00E944F
:10212000452A8883DF91CF910895FC01608182E088
:1021300090E00C94572A83E090E00E94452A90E0BA
:102140000895682F83E090E00C94572ACF93DF9393
:10215000EC0184E090E00E94522A99838883DF9109
:10216000CF910895FC016081718184E090E00C942E
:10217000712ACF93DF93EC0186E090E00E94452A1C
:102180008883DF91CF910895FC01608186E090E023
:102190000C94572A4F925F926F927F928F929F92E8
:1021A000AF92BF920F93CF93DF93EC0188E090E062
:1021B0000E944D2A2B013C01688359828A837B82CD
:1021C0001C821D821E821F8283E290E00E94452AAB
:1021D000282F30E040E050E060E070E080E090E0E8
:1021E00000E20E9497292429352946295729288366
:1021F00039834A835B836C837D838E839F83DF91E6
:10220000CF910F91BF90AF909F908F907F906F90E4
:102210005F904F9008950F93CF93DF93EC01488127
:1022200059816A817B8188E090E00E94692A288137
:1022300039814A815B816C817D818E819F8100E241
:102240000E94B229622F83E290E00E94572ADF9118
:10225000CF910F910895AB01BC018FE090E00C94F9
:10226000692AAB01BC0183E190E00C94692A682FD4
:102270008EE090E00C94572A0895FECF08950895BB
:10228000FECF0895E82FF0E0EE0FFF1FE55CFC4F56
:10229000808191810895089580EA8A95F1F70895E3
:1022A00000C00895F9CF0895F894E82FE295EF70F3
:1022B000F0E031A1282F2F7081E090E001C0880F5D
:1022C0002A95EAF7982F9095932391A392A1892BB1
:1022D00082A3789408950F931F93CF93DF93C1EB5C
:1022E000D1E089918F3F09F0DFDF81E0C63BD8075D
:1022F000C1F7C3EAD1E001EB11E089918F3F09F00A
:10230000D3DF0C171D07C9F7DF91CF911F910F91F4
:102310000895AF92BF92DF92EF92FF920F931F93B7
:10232000CF93DF938C01D62EC62FD0E0CE018F54F1
:102330009E4F7C01FC0120812F3F09F449C0F89495
:10234000E22FE295EF70F0E031A12F7081E090E094
:1023500001C0880F2A95EAF7932F982B91A392A199
:102360008095892382A378949BDFE3EAF1E041E042
:1023700050E0B12CA12C21912F3FA1F1A22FA295C9
:10238000AF70B0E090968C9190E02F7002C0959560
:1023900087952A95E2F780FD25C0CA01A82AB92AA7
:1023A000440F551F81E0E13BF80729F7F7018081D1
:1023B0008F3F09F079DF61E0A114B10409F460E016
:1023C0008D2D70DFCC0FDD1FC00FD11FB982A88209
:1023D000DF91CF911F910F91FF90EF90DF90BF9011
:1023E000AF90089590E080E0D9CF75DF8AE0EBE30D
:1023F000F3E0DF01982F1D929A95E9F7E1E3F3E00E
:10240000DF011D928A95E9F785E039D036CFAAE041
:10241000B0E0EDE0F2E10C946D298E010F5F1F4FEB
:102420008AE0F80111928A95E9F7F12C6F2DC80125
:1024300070DFF394F5E0FF12F9CF4AE050E0B80105
:1024400081E393E00E942F2A21E0009709F420E025
:10245000892B41F08AE0F801A1E3B3E001900D92ED
:102460008A95E1F745E06BE373E081E393E008D000
:10247000182F06DF812F2A96E5E00C94892908950C
:10248000B0E0A0E0E6E4F2E10C946A296C017B0183
:10249000042FC22F222379F081E08093C7020E948B
:1024A00012229093C6028093C50280E0CDB7DEB7BA
:1024B000E8E00C948629D091C702DD23B1F3809126
:1024C000C5029091C6020E94A321059770F310E007
:1024D000000F111FA801B601C7010E942F2A892BE6
:1024E00031F0A801B601C7010E943C2ACD2F1092FD
:1024F000C7028C2FDBCF5ACB08950E94AC210E94DB
:10250000A52323DB0E94BD2344DB0E94C6230E9437
:10251000C923F1DF0E94DF2326DBF9CF9093EB0183
:102520008093EA0108950F931F93CF938C01FB01D1
:10253000C581CC2309F43BC07BD98272F801E052FB
:10254000F847EB30F10530F4E155F54D0C942F29A7
:1025500069D5C0E08C2FCF911F910F9108958823EA
:1025600021F054D5F6CF8823E1F344D5F2CF882368
:1025700021F022D2EECF8823E1F313D2EACF8823D1
:1025800021F034D2E6CF8823E1F323D2E2CF8823AF
:1025900021F046D2DECF8823E1F335D2DACF88238B
:1025A00021F0F1D0D6CF8823E1F3DED0D2CFC1E045
:1025B000D1CFEF92FF920F931F93CF93DF939B01A5
:1025C000682F31110EC0442329F0E82FF0E0E659BE
:1025D000FC4F6491762F862FCDB7DEB7E6E00C94E2
:1025E0008829C32FD0E0E82FF0E0442321F0E659FA
:1025F000FC4FE491F0E046E0249FC00111240FEF6E
:1026000010E0B8010E94E628AB01822F90E0880F0D
:10261000991F25E5249FB001259F700D1124861B6D
:10262000970B982F990F980FB8016C1B7D0B6E9F1D
:10263000D0016F9FB00D7E9FB00D11248B2F939F03
:1026400090011124232F3327B801621B730B6E9F57
:1026500090016F9F300D7E9F300D11247801E91A93
:10266000F108EC9EB001ED9E700DFC9E700D1124E2
:10267000672F7727061B170B0E9FE0010F9FD00DCA
:102680001E9FD00D11247D2F9E2F4230510599F0B1
:1026900048F44115510569F04130510581F07B2F17
:1026A000832F07C04430510569F080F04630510552
:1026B000B1F7692F91CF9B2F8D2F7E2FFACF7E2FD1
:1026C000932FF7CF9D2F7B2F8E2FF3CF732F9B2F21
:1026D000FBCF41E06ECF0895FCCF089590910B01A0
:1026E000291B922FE091E301F091E401242F462F62
:1026F000682F892F90E009950895CF93DF93762F67
:10270000E901682F842FE8DF962F672F9E01482F5D
:10271000892FE4DFDF91CF91089580914503982FB1
:102720009C7F29F4837084608093450308958C3ADC
:10273000E8F38370886AF8CFE5E4F3E085E080830E
:1027400011828FEF828383831482CF01B6C9909167
:102750004903933018F49F5F90934903882319F03D
:1027600085E493E0AAC9089581E0F1CF90914903EF
:10277000992319F0915090934903882319F085E427
:1027800093E09BC9089581E0F1CF0F931F93CF93FE
:102790008091450380FF09C0E091E701F091E801D5
:1027A0000995CF911F910F910895C0910D0100914E
:1027B000E3011091E40180910E01C81768F7809140
:1027C0000B019C2F981B892F20E040E060E090E0F7
:1027D000F8010995CF5FEFCFEF92FF920F931F9310
:1027E000CF93DF93D82F162F042F8091450380FFBE
:1027F0000BC0C0910D01E090E301F090E4018091E5
:102800000E01C81730F0C1DFCDB7DEB7E6E00C949B
:10281000882980910B019C2F981B892F202F412FF5
:102820006D2F90E0F7010995CF5FE9CF762F90915A
:10283000450390FF08C0682F842F4EDF962F672F27
:10284000482F892FC9CF0895CF93DF93EC01EC81F6
:10285000F0E0EB59FD4F4491E5E4F3E062818181C2
:10286000E5DF8C818F5F8C83DF91CF910895CF93CB
:10287000DF93EC01E5E4F3E0438162818C81D6DFF4
:102880008C818F5F8C83DF91CF910895CF93DF93FD
:10289000EC01409148039C81892F817090FD842F29
:1028A000692F627091FD642F92FF40E095DF8C816B
:1028B00090E00196877099278C83DF91CF910895DE
:1028C000B0E0A0E0E6E6F4E10C946B29D82FF62EF8
:1028D000042FE22E9091450390FF21C0E92FE69549
:1028E000E695AE2FB0E0AA54BE4F8C9180930D03B5
:1028F0009C7F9430C9F46D2F7F2D842FEDDE962FB1
:10290000672F482F892F68DFD0934603F092470343
:1029100000934803EE2019F085E493E0CED8CDB7BC
:10292000DEB7E7E00C948729823019F40091480360
:10293000EBCF863019F4D0914603E6CF8930D9F336
:10294000893111F7E9518E2F8170D82EE695F0E08C
:10295000EB59FC4FC49110E060910F01161710F075
:1029600014DFD2CF1C9FC001112470E00E94E62822
:102970008D2FD1100BC0860F20910D01210F332711
:10298000331F402F6F2DB9DE1F5FE6CF861BF4CFBC
:10299000E5E4F3E09181282F438162818AE0890F89
:1029A0008FCF81E0F5CFE5E4F3E09181282F4381DB
:1029B000628186EF890F84CF81E0F5CFE5E4F3E013
:1029C000628121E1620F08F46FEF282F438181813A
:1029D00077CF81E0F3CFE5E4F3E0628121E1621B90
:1029E00008F460E0282F438181816ACF81E0F3CF32
:1029F000E5E4F3E0438121E1420F08F44FEF282F93
:102A0000628181815DCF81E0F3CFE5E4F3E0438132
:102A100021E1421B08F440E0282F6281818150CFE0
:102A200081E0F3CF20E04CCFEF92FF921F93CF9342
:102A3000DF93EC0110E0EE24EA94F12C60910F0199
:102A4000161768F0A2DE9A818C8190FF1DC08F5FFF
:102A50008C83DF91CF911F91FF90EF90089520918B
:102A60000D01210F3327331F70E0C7010E94FA28A0
:102A7000962F8C814091480360914703199F800DE8
:102A800011243BDE1F5FDACF8150E2CFB0E0A0E03F
:102A9000ECE4F5E10C946829FC018281DFEF80FF12
:102AA000D1E0C0E00091E3011091E4012CE0A22EFE
:102AB00080910F01C81790F068DE8091C902D13073
:102AC00009F04FC0811102C080910F0181508093A5
:102AD000C902CDB7DEB7EAE00C94842980910D01DC
:102AE00090910B01891B8C0F20E040E060E090E0AA
:102AF000F801099594E0E92EF12CB12CCC2ED12CC3
:102B00008091C9028B0D8D3034F16A2D0E94D92835
:102B1000892F082E000C990BC816D906A9F420910C
:102B20000D012C0D3D2D311D809148038E9DA0017E
:102B30008F9D500D1124559547955595479560915A
:102B4000470380914603D9DDBD0EF1E0EF1AF1088D
:102B5000B9F6CF5FADCF87FFDCCF90910F01890F22
:102B6000D8CF90E0019660910F0170E00E94FA28A2
:102B7000AECF0F931F93CF93C0910D010091E3014E
:102B80001091E40180910E01C81748F1C0E0009156
:102B9000E3011091E40160910F01C61768F1F5DDC2
:102BA000209109018091C802820F8093C802909100
:102BB0000A01920F90930A01191654F4082E000C82
:102BC000990B40910F014150550B841795071CF04C
:102BD000219520930901CF911F910F910895809124
:102BE0000B019C2F981B892F20E040E060E090E0D3
:102BF000F8010995CF5FC6CFEC2FF0E070E0CF0170
:102C00000E94FA2820910D01820F2091C802022E05
:102C1000000C330BE217F3079CF020910A01022EFF
:102C2000000C330B2E173F075CF0282F30E040914B
:102C3000480360914703809146035FDDCF5FABCFD0
:102C400090910B01891B20E040E060E090E0F801EA
:102C50000995F4CFB0E0A0E0E0E3F6E10C9466293A
:102C6000EC014C81042F10E09801D8010E943B290F
:102C70009B01AC010E9450294B015C01E0E2F0E0B5
:102C8000E01BF10BA5E5B0E0AC019B010E945029CF
:102C90006B017C019F01DF010E9435299B01AC0182
:102CA0000E945A299B01AC01280D391D4A1D5B1D4C
:102CB000C701B6010E940D29F22E822F90E039E261
:102CC0003F1518F143E0249F900111243595279575
:102CD000122F109500E085E5E82EEF1880910F0186
:102CE000081718F152DD9C8181E0992319F0903288
:102CF00019F48FEF8093080180910801890F8C836C
:102D0000CDB7DEB7ECE00C94822925E530E0A901CF
:102D1000481B590BCA019A01220F331F280F391F74
:102D200037FFD4CF2F5F3F4FD1CF8E2D01FD8F2D99
:102D300020910D01200F3327331F412F609147034E
:102D4000DCDC0F5FCBCF0F931F93CF93DF938C010E
:102D5000D0E0C0E090910F019C171D0609F06CF4C3
:102D600014DDF801848190E00196817099278483B5
:102D7000DF91CF911F910F910895F8014481209127
:102D80000D012C0F3D2F311D6091470380914603AB
:102D900096959C171D0641F03CF0442339F0409174
:102DA0004803ABDC2196D6CF4423C9F340E0F9CFEA
:102DB000B0E0A0E0EEEDF6E10C946229FC01628047
:102DC000448081E08483E5E6F2E07490E4EEF2E092
:102DD000E491C0914803C695C158D0E0CC0FDD1FE7
:102DE000CD2FDD27812C25E0922EAA24AA94B12C88
:102DF00055245A94E719EE2EF12C80910F01881674
:102E000030F0C3DCCDB7DEB7E0E10C947E29C82CEE
:102E1000D12C82E0861568F09C9CF0019D9CF00D01
:102E20001124E653FD4F8091460380838091470330
:102E3000818341101BC09C9CF0019D9CF00D1124CE
:102E4000E653FD4F1382128220910D012C0D3D2D72
:102E5000311D9C9CF0019D9CF00D1124E653FD4F0B
:102E600042816181808149DC8394C7CF9C9C800131
:102E70009D9C100D112406531D4FF801838188235A
:102E8000F1F081508383859DC0011124648170E03D
:102E90000E94E628FB01FF27EB59FD4F8491E82FA4
:102EA000E719E59DC0011124B7010E94E628809131
:102EB0004803689FB0011124F8017283C5CF0E94B6
:102EC000142AB5010E94FA288C179D070CF0BCCF7C
:102ED000F2E0F61598F40E94142AB5010E94FA282F
:102EE000F80180830E94142A209147032695622FBF
:102EF00070E00E94FA28280FF80121839C9CF001C1
:102F00009D9CF00D1124E653FD4F128280914803E1
:102F1000893C58F088EC9C9CF0019D9CF00D11249C
:102F2000E653FD4F848383838FCF8431A0F784E100
:102F3000F2CFE5E4F3E080818E7F8083CF010E94B1
:102F40005D0D10920E0321CC609145036695669548
:102F500070E04BE050E080E191E00E94222A892B52
:102F600019F481E080930E030E94122290930703CC
:102F70008093060308959091450390FF25C09370B8
:102F8000811123C0946090934503662321F085E46A
:102F900093E00E945D0D609145036695669570E033
:102FA0004BE050E080E191E00E94222A892BA9F0B9
:102FB00010920E0381E080930903409148036091D1
:102FC0004703809146032ECD08958B3210F0986A06
:102FD000DACF880F880F982BD6CFB6DFEBCF682FCC
:102FE000909145039695969581E0890F8B3208F074
:102FF00081E0C1CF81E0F3CF682F90914503969592
:1030000096958FEF890F09F48AE2B5CF81E0F4CF6E
:1030100061E0B1CFE5E4F3E0808181608083869553
:103020008695F6CF8091450380FF01C082CFF2CF15
:1030300060E0A1CF80910C0381111FC085E493E073
:103040000E945B0D809145038C7F29F475DB85E43C
:1030500093E00E945B0D61DB10920E03E091E101B1
:10306000F091E20109958091450380FF03C08695A8
:103070008695DEDF81E080930C0308950F931F9304
:10308000CF93DF9380910E038823C1F180910D03CC
:10309000E0914503E695E695E81BE093080382304E
:1030A00091F5F0E0EF59FD4FE491CE2FD0E004E22E
:1030B00014E180910903882361F0109209030E94B2
:1030C0001222909307038093060310920B03109231
:1030D0000A030E941222E0910603F09107038E1B5F
:1030E0009F0B8F3F9F4750F4EC0FFD1FF09307039A
:1030F000E093060386E093E0F8010995DF91CF9114
:103100001F910F910895863049F4F0E0E25AFD4F87
:10311000E491CE2FD0E007E314E1CBCF893051F416
:10312000E695F0E0E55AFD4FE491CE2FD0E004E1C2
:1031300015E1BFCF8F3051F4E695F0E0E85AFD4F2E
:10314000E491CE2FD0E006E415E1B3CF853149F408
:10315000F0E0EB5AFD4FE491CE2FD0E009EB15E102
:10316000A8CFC8E2D0E00AE216E1883109F4A1CF85
:10317000833239F4E3E5F2E0C591D49106E414E139
:1031800098CFC4EFD1E003EA16E1843209F491CF7D
:10319000C0EDD7E00BE613E1853209F08ACF8E2F20
:1031A00063E00E94CD28E92FF0E0E05BFD4FE49161
:1031B000CE2FD0E008ED16E17CCF08955FCF0895C3
:1031C00085E380934D038DE493E00C94590D8DE4D9
:1031D00093E00E94570D80914D0382FFF1DF8091B3
:1031E0004D03883320F08770806380934D03909166
:1031F0004D03892F817090FF04C0892F8695869595
:10320000869536C180914D03982F96959695969503
:10321000963040F49F5F990F990F990F8770892B13
:1032200080934D0380914D03816080934D038DE425
:1032300093E00E94590D80914D0386958695869561
:1032400017C180914D03982F987F89F08850809303
:103250004D03887F91E009F490E080914D0390FB4D
:1032600080F980934D038DE493E00E94590D809185
:103270004D03869586958695FBC080914D0380FD14
:1032800012C0816080934D03813019F489E08093EE
:103290004D038DE493E00E94590D80914D03869576
:1032A00086958695E5C0089580914D0380FF09C0FD
:1032B0008E7F80934D038DE493E00E94590D80E052
:1032C000D7C0089580914D0380FF01C0EDCFD5CFC9
:1032D00090914D03892F8695869586958F5F8F7186
:1032E00097708730E0F4880F880F880F892B8093C0
:1032F0004D0380914D03887F91E009F490E0809127
:103300004D0390FB80F980934D038DE493E00E9480
:10331000590D80914D03869586958695A9C0909309
:103320004D03E7CF873008F086E090914D0397700A
:10333000282F220F220F220F922B90934D03987F5C
:1033400021E009F420E090914D0320FB90F9909347
:103350004D038EC0E7DF8DE493E00C94590D9C0182
:10336000FB018581882321F12230F8E73F07E1F056
:1033700040F42115E8E73E0769F02130384771F045
:103380000895243098E7390769F050F02530384720
:1033900069F0089586E0DEDF80E0089580E0FBCFED
:1033A00050DFFACF2FDFF8CF8DDFF6CF91DFF4CFEC
:1033B00081E00895859A8D9A08958D9808958D9A43
:1033C00008951F920F920FB60F9211242F933F93DF
:1033D0004F935F936F937F938F939F93AF93BF931D
:1033E000EF93FF93ECDFFF91EF91BF91AF919F912E
:1033F0008F917F916F915F914F913F912F910F909E
:103400000FBE0F901F9018951F920F920FB60F923C
:1034100011242F933F934F935F936F937F938F93D9
:103420009F93AF93BF93EF93FF93209188003091C8
:10343000890080918600909187006AEF70E00E9479
:10344000E6286B5F7F4F6217730708F4B6DFFF91C2
:10345000EF91BF91AF919F918F917F916F915F910C
:103460004F913F912F910F900FBE0F901F90189585
:103470008F929F92AF92BF92EF92FF920F931F9302
:10348000CF93DF93C82F873008F042C0811141C02D
:103490008091880090918900892B51F080916F0074
:1034A0008D7F80936F0080916F008E7F80936F007F
:1034B00086DFA0918600B09187002C2F30E00E941B
:1034C0003B2926E030E040E050E00E940D298901D0
:1034D0009A0180918600909187006CE070E00E94D4
:1034E000E6286017710730F1C80169E070E00E94BA
:1034F000E6287093890060938800DF91CF911F9137
:103500000F91FF90EF90BF90AF909F908F90089594
:10351000C6E08091880090918900892B51F68091B6
:103520006F00826080936F0080916F008160809354
:103530006F00BFCF8091860090918700E090860059
:10354000F0908700E0918600F0918700C6E0D0E01F
:10355000BE010E94E628060F171F211D311D4801DC
:10356000590185E0880C991CAA1CBB1C8A95D1F7CF
:10357000C701BE010E94E6289F0150E040E0260FEF
:10358000371F411D511DC501B4010E940D2949017C
:103590005A01E0918600F0918700CA01B9010E94AA
:1035A000BE289B01AC01DF010E9450299B01AC01A8
:1035B000C501B4010E94BE282FE0969587957795A6
:1035C00067952A95D1F7009186001091870030E029
:1035D00020E0061717072807390708F08ACF6091FF
:1035E00086007091870085CF0895E4DE82E08093A5
:1035F000800089E1809381008FEF9FEF9093870097
:1036000080938600E4CD869A0895FC01EE0FFF1F9B
:10361000E80FF91FE25BFC4F61834083228308952A
:10362000EEE4F3E0818360834283339693E0E237F4
:10363000F907C1F7089531B33F7B21B320644FB739
:10364000F8948EE493E0FC015191CF0168E021BB36
:10365000000000C057FF31BB550F000000C000C084
:1036600000C031BB00C06A9591F7F3E082379F0735
:1036700051F74FBF8FE594E00197F1F700C00000CC
:1036800008950C94490D089580E00E9442118170C4
:1036900008950E9407122FEF86E791E021508040A5
:1036A0009040E1F700C000000E940712EDDF882380
:1036B00011F0E7DFF3C60895ECCF0895CF93DF93C1
:1036C000EB0186319C4701F50E94180C9D819923DE
:1036D00091F08A7A91E009F490E090930F038111C0
:1036E00008C089E244D50E94C30C80E0DF91CF91ED
:1036F000089585E3F7CF80910F03811103C089E21C
:103700004DD5F1CF85E3FCCF81E0F0CFCF93DF93B0
:10371000EC01FB018581882309F4CEC09E0130575E
:103720002332310508F0AEC08FE293E00E94530DC2
:10373000FE01E150F047E232F10520F4E654F54D88
:103740000C942F2980912F03816080932F0393C0C5
:10375000809130038860809330038DC080912F0367
:103760008260F3CF80912F038460EFCF80912F038D
:103770008860EBCF809130038160EDCF8091300382
:103780008260E9CF80912F038061DFCF80912F038A
:103790008062DBCF80912F038064D7CF0E94E60741
:1037A00080912F038068D1CF80912F038C60CDCF83
:1037B000809130038360CFCF80912F038E7FC5CF60
:1037C00080913003877FC7CF80912F038D7FBDCF3E
:1037D00080912F038B7FB9CF80912F03877FB5CF47
:1037E000809130038E7FB7CF809130038D7FB3CF30
:1037F00080912F038F7EA9CF80912F038F7DA5CF3E
:1038000080912F038F7BA1CF0E94E60780912F0329
:103810008F779BCF80912F03837F97CF8091300349
:103820008C7F99CF80912F0382FB992790F921E01B
:10383000922790FB82F990FB83F987CF8091300328
:10384000982F909591708E7F892B90FB81F983CF73
:1038500090912F03892F8F7B96FF806476CF0E94F3
:10386000E60790912F03892F97FB87F980586DCF3A
:1038700081E00E945F0D8FE293E00E94550D0E944F
:10388000E60780E0DF91CF91089580E0F2CF90913C
:103890002F03892F8F7E94FF806157CF90912F0344
:1038A000892F8E7F90FF816050CF90913003892FB8
:1038B000877F93FF88604FCF81E0E4CF282F35EBDF
:1038C0002303C001112497FF04C080589109892F58
:1038D000089580589F4FFBCF8091160380FF0DC045
:1038E0006091200170E0660F771F6038710570F5F8
:1038F0006115710569F1862F089581FF07C06091F8
:10390000200184E0689FB0011124EFCF6091200175
:1039100082FD0AC0809115038823A9F020911F0120
:1039200060912001821710F088E0ECCF869FC001E3
:10393000112433E0880F991F3A95E1F7622F70E068
:103940000E94FA28D2CF68E070E0D5CF8FE70895C3
:1039500081E008958091160380FF0CC060911C01E6
:1039600070E075956795759567956115710549F1D5
:10397000862F089581FF06C060911C0170E0759547
:103980006795F3CF60911C0182FD0BC090911403E9
:103990009923A1F060911B0180911C01961738F0CA
:1039A000682F70E06038710500F38FE70895899FF4
:1039B000C001112470E00E94FA28F4CF61E070E0A9
:1039C000D7CF81E008958D3C29F486DF81958093DF
:1039D0001A0308958E3C11F47FDFF9CF8F3C29F450
:1039E0007BDF8195809319030895803D11F474DF86
:1039F000F9CF893D21F4AEDF80931B0308958A3D02
:103A000019F4A8DF8195F8CF8B3D29F4A3DF8195C8
:103A100080931C0308958C3D11F49CDFF9CF9FE245
:103A2000980F983070F4815D990B21E030E001C06F
:103A3000220F8A95EAF780911803822B809318034E
:103A400008958D3D31F480911603816080931603B3
:103A500008958E3D21F4809116038260F7CF8F3D4B
:103A6000B9F7809116038460F1CF409119038D3C22
:103A700059F480911A0387FF0DC010921A03411167
:103A80000BC01092150308C08E3C81F480911A037C
:103A900018169CF3442381F080911B0390911C0322
:103AA000892B09F05AC01092140308958F3C49F4F1
:103AB00047FFF0CF1092190380911A038111ECCFC8
:103AC000E0CF803D19F41416ACF3E4CF90911B03C2
:103AD000893D29F41916F4F610921B03DBCF8A3DB9
:103AE00019F497FFD7CFF8CF90911C038B3D29F4A1
:103AF00097FFD0CF10921C03CDCF8C3D19F419162F
:103B0000CCF3C8CF9FE2980F983090F4815D990B69
:103B100021E030E0B90102C0660F771F8A95E2F715
:103B2000CB01809590911803892380931803B2CF1D
:103B30008D3D31F4809116038E7F80931603AACFBA
:103B40008E3D21F4809116038D7FF7CF8F3D09F0D4
:103B5000A1CF809116038B7FF0CF089563D49C0191
:103B60009091190380911A03982B21F0309313033D
:103B70002093120390911B0380911C03982B21F03A
:103B8000309311032093100387E193E0E4C186E0B2
:103B9000E7E1F3E0DF011D928A95E9F71092150342
:103BA00010921403109216030895FC018281811172
:103BB0000EC0838181110BC08481811108C091E006
:103BC0008581811101C090E0892F8170089581E085
:103BD000FCCFA6E0B0E0EFEEFDE10C946F2986E0AB
:103BE000E7E1F3E0DE01119601900D928A95E1F78D
:103BF0001092190310921A0310921B0310921C03C7
:103C00008B819C81892B81F0809112039091130309
:103C10009AD3AC01909115039923A9F180912101C8
:103C20008417150608F43CC08D819E81892B89F08C
:103C3000809110039091110386D3AC0190911403ED
:103C4000992309F463C080911D018417150608F4B7
:103C50006BC0BE016F5F7F4F87E193E0CFD28111D0
:103C600004C087E193E0A1DF811178DF86E0FE01E7
:103C70003196A7E1B3E001900D928A95E1F726967F
:103C8000E3E00C948B29209122018AE0289F900187
:103C900011242417350740F69F5F9093150302C047
:103CA0009F3FD1F71B81112351F016DE9FEF1116B4
:103CB0000CF491E0899F802D1124809319031C81BD
:103CC000112351F009DE9FEF11160CF491E0899F4A
:103CD000802D112480931A0380911903882309F4FD
:103CE000A3CF10911A03112309F49ECFE7DD882397
:103CF00049F080931903812FE1DD882329F0809317
:103D00001A0392CF81E0F5CF81E0F9CF20911E0117
:103D10008AE0289F900111242417350708F099CFD5
:103D20009F5F9093140302C09F3FD1F71D81112321
:103D300051F010DE9FEF11160CF491E0899F802D59
:103D4000112480931B031E81112351F003DE9FEF8A
:103D500011160CF491E0899F802D112480931C038F
:103D600080911B03882309F474CF10911C03112345
:103D700009F46FCFA3DD882349F080931B03812FC3
:103D80009DDD882329F080931C0363CF81E0F5CF6C
:103D900081E0F9CF0F931F93CF93DF93C42FD22FDE
:103DA000FC0185818823C1F040931F033BD390938E
:103DB0001E0380931D0380E28C0F883040F4C7708F
:103DC00081E001C0880FCA95EAF70E94D205DF9111
:103DD000CF911F910F91089510911F03141331C0BB
:103DE00080911D0390911E03AED2883C910548F549
:103DF000C0E2CD0F1D17B9F080E2810F883040F48A
:103E0000177081E001C0880F1A95EAF70E94D70564
:103E1000C83048F481E09D2F977001C0880F9A95B3
:103E2000EAF70E94D205802F0E94CB05C83078F6B1
:103E3000D77081E001C0880FDA95EAF70E94D705B4
:103E4000C6CF80E28C0F883010F6C77081E001C0C9
:103E5000880FCA95EAF7F2CF0F93DB0188519C4790
:103E60008730910598F5FC01E452F54D0C942F290B
:103E700006E221EE41EE6AE17CE7CD018BDF80E0D6
:103E80000F91089507E225EE45EE6BE17CE7F5CF53
:103E900006E221EE40EE68E17CE7EFCF07E225EE97
:103EA00044EE69E17CE7E9CF06E221EE42EE6CE107
:103EB0007CE7E3CF07E225EE46EE6DE17CE7DDCF60
:103EC00008E221E045EE6EE17CE7D7CF15968C91B4
:103ED000882319F010921F03D3CF81E0D1CF9093A4
:103EE0002503809324030895F4D191E0813009F0F3
:103EF00090E0892F0895E0912403F09125033097F5
:103F000039F00190F081E02D309711F00995089576
:103F100080E00895F0CF0895E0912403F091250307
:103F2000309731F00280F381E02D309709F0099548
:103F30000895E0912403F0912503309759F02481EE
:103F40003581232B39F026E0DC012C930480F581A8
:103F5000E02D09950895E0912403F0912503309711
:103F600059F026813781232B39F022E0DC012C9394
:103F70000680F781E02D09950895A3E0B0E0E3EC19
:103F8000FFE10C947029209122033091230328171C
:103F90003907B1F09093230380932203E091240327
:103FA000F0912503309761F00084F185E02D309782
:103FB00039F023E029839B838A83CE0101960995FA
:103FC0002396E2E00C948C29A3E0B0E0EAEEFFE156
:103FD0000C94702920912003309121032817390770
:103FE000B1F09093210380932003E0912403F0919A
:103FF0002503309761F00084F185E02D309739F08A
:1040000024E029839B838A83CE0101960995239618
:10401000E2E00C948C29CF93DF93C0910601D091FC
:104020000701229661DF882381F080912F0387FFAB
:104030000CC0C0910401D091050122969EE180E060
:10404000915028F4DF91CF91089596E0F8CF29910F
:104050002223B1F38F5FF4CFCF93C82F811102C019
:1040600080E023C041DF882311F180912F0387FF77
:104070001EC0EC2FE695E695E695EE3188F7809127
:10408000040190910501E80FF92FF11D228130E024
:10409000C77081E090E002C0880F991FCA95E2F7CF
:1040A0002823392381E0232BD9F2CF9108958091E1
:1040B000060190910701FC013296089621912C1778
:1040C00021F0E817F907D1F7CBCF81E0EECF9C01C3
:1040D000FC0132969FEF80E04191461751F09F3FDF
:1040E00019F4411101C0982F8F5F8630A9F79F3FC7
:1040F00009F40895290F311D97FD3A95F90162835E
:104100000895FC01329608962191261303C0DF0121
:1041100011971C92E817F907B9F70895E62FE6956D
:10412000E695E695EE3168F4E80FF92FF11D67701A
:1041300021E030E001C0220F6A95EAF78281822BEC
:1041400082830895E62FE695E695E695EE3170F4C4
:10415000E80FF92FF11D677021E030E001C0220F58
:104160006A95EAF720958281282322830895CF93C8
:10417000C82FBADE6C2F882359F080912F0387FF58
:1041800007C08091040190910501C8DFCF91089587
:1041900080910601909107019ADFF8CFCF93C82F45
:1041A000A3DE6C2F882359F080912F0387FF07C06F
:1041B0008091040190910501C5DFCF910895809110
:1041C0000601909107019DDFF8CF8EDE882379F0FC
:1041D00080912F0387FF0BC0E0910401F09105014E
:1041E00032968EE1DF011D928A95E9F70895E091FC
:1041F0000601F0910701329686E0F4CFDC01FB0165
:1042000011969C9111978181981322C012968C91DE
:104210001297882319F0928189131AC013968C91F2
:104220001397882319F09381891312C015968C91E6
:104230001597882319F0958189130AC014969C91CB
:10424000992321F081E02481291303C080E001C07B
:1042500081E0817008950895FECF089581110CC00A
:1042600081E0809326016091230170912401809167
:10427000250190912601F0CF82E0F3CF83E0809377
:104280002601609123017091240180912501909174
:104290002601E2CFE3CF089581E08093260160916B
:1042A0002301709124018091250190912601D4CFA2
:1042B000F3CF089591E0811101C090E09093250122
:1042C0006091230170912401809125019091260134
:1042D000C3CF80912501089580932401609123012B
:1042E000709124018091250190912601B5CF809194
:1042F000240108958093230160912301709124018A
:104300008091250190912601A7CF809123010895E6
:1043100008950895FECF089508950895F9CF08955A
:10432000CF93FADF0E940712F8DFC0E08C2F0E94C3
:104330004211892B31F4CF5FC530C1F780E0CF91B6
:10434000089581E0FCCFCF93DF93EC016BD08C1B01
:104350009D0BDF91CF91089585B7806885BF85B7A4
:10436000806885BF08951F921FB61F9211248F93F6
:104370009F93AF93BF9380912603811113C08091C7
:10438000720390917303A0917403B09175034196E9
:10439000A11DB11D8093720390937303A0937403C6
:1043A000B0937503BF91AF919F918F911F901FBEE6
:1043B0001F90189580917A03843031F10E94700427
:1043C0001092260388E190E020E40FB6F894A895B7
:1043D000809360000FBE2093600083B7817F84606C
:1043E00083BF83B7816083BF7894889583B78E7FBE
:1043F00083BF0FB6F894A895809160008861809380
:104400006000109260000FBE08950E94E6070C94B1
:10441000770482E084BD93E095BD9AEF97BD8093C9
:104420006E0008952FB7F8948091720390917303F2
:10443000A0917403B09175032FBF08952FB7F8941E
:10444000609172037091730380917403909175036E
:104450002FBF089578941F921FB61F9211248F9337
:104460009F93AF93BF938091720390917303A09138
:104470007403B09175030196A11DB11D8093720361
:1044800090937303A0937403B0937503BF91AF919E
:104490009F918F911F901FBE1F90189581E0809370
:1044A000E00080E28093D8001092C9008FE19EE482
:1044B0000197F1F700C0000087E090EBDC018093EA
:1044C000830390938403A0938503B093860388E1CC
:1044D0009CE00FB6F894A895809360000FBE90936F
:1044E0006000FFCF88E19CE00FB6F894A895809318
:1044F00060000FBE90936000FFCF9B01BA019091C6
:104500007A039430E1F48F708093E9009FEF8091FB
:10451000E800915085FD06C085ED8A95F1F7000011
:104520009111F5CF8091E80085FF09C050E040E08F
:10453000C901BAD18091E8008E778093E800089590
:1045400043E050E0BC0182E0D8CF46E050E0BC013F
:1045500082E0D3CF40E250E0BC0182E0CECFCF93E7
:10456000DF93EC01B6DE48E050E0BE0181E0C5DF3C
:1045700088E0FE01A7E2B3E001900D928A95E1F791
:10458000DF91CF91089580917903811107C01AD3EB
:1045900071D38091E20084608093E20008951092CC
:1045A0007903089579DE81E085CE6091760381E01C
:1045B000611101C080E062CE90917A0381E0943075
:1045C00009F080E06091760365CE42E061EC81E025
:1045D00075D242E261EC82E071D290917A0381E07F
:1045E000943009F080E06091760338CE80917C03AE
:1045F000833009F45EC030F48130C1F1823009F4B7
:1046000094C008958A3009F483C08B3009F46BC0DC
:10461000893009F04DC080917B03813209F048C098
:1046200080917F0390918003029708F041C08091B0
:10463000E800877F8093E8008091E80082FF34C023
:104640009091F3008091F200029731F48091F10093
:10465000813011F0863019F48091F1003DDE8091B7
:10466000E8008B778093E8005DD222C080917B03C5
:10467000813AF1F48091E800877F8093E80080918F
:104680007F0390918003892B59F468E087E293E0DF
:1046900070E057D18091E8008B778093E80008950F
:1046A00060E090E080E0F4CF80917A038111C4CF84
:1046B000089580917B03813AD9F780917F0390918F
:1046C0008003892BA9F78091E800877F8093E80019
:1046D0008091E80080FFFCCFFCDD8093F1008091A9
:1046E000E8008E77BFCF80917B03813209F78091FC
:1046F0007F0390918003892BD9F68091E800877F12
:104700008093E8000FD280917D03D4DD0C94E607FE
:1047100080917B03813261F68091E800877F8093EE
:10472000E80000D280917E03E5CD80917B03813A41
:1047300009F0BECF8091E800877F8093E8008091E8
:10474000E80080FFFCCFE1DDC8CF84B7877F84BF5E
:104750000FB6F894A89580916000886180936000FE
:10476000109260000FBE80E890E00FB6F89480933E
:104770006100909361000FBE9BCD24D27BD2E2EE0C
:10478000F0E08081846080837894DEC487E291E0E9
:10479000A6CB80917A03853029F480917A03853005
:1047A00011F033CE089506DEBBDD8823B1F380918E
:1047B0007803882391F362D00E94E607EECF089534
:1047C0009A01409181035091820300C0492F5527DF
:1047D0004330510519F168F44130510509F444C0E2
:1047E0004230510509F445C090E080E050E040E0DF
:1047F00025C04132510549F142325105A9F784E4FF
:1048000090E047E955E061157105C1F086EB90E055
:1048100041EE54E06130710589F0E6CF992781308F
:10482000910581F0009729F00297F1F6EAE6F4E0AD
:1048300002C0E0E9F4E0849190E0AF01F901518316
:1048400040830895E2E8F4E0F6CF89E090E046EA9C
:1048500054E06115710591F389E090E04FEB54E06D
:104860006130710559F3C0CF82E190E04FEC54E024
:10487000E5CF8BE390E044E954E0E0CF80E189BDEF
:1048800082E189BD09B400FEFDCF8091D8008F7D03
:104890008093D8008091E00082608093E000809156
:1048A000E00081FDFCCF0895AF92BF92CF92DF92DE
:1048B000FF920F931F93CF93DF936C01EB018A015B
:1048C00050D1F82E811123C00115110539F0F801DE
:1048D00080819181C81BD90BC80ED91EB12CA12C87
:1048E0002097A9F08091E80085FD21C08091E80023
:1048F0008E778093E80001151105A1F0F801808101
:104900009181A80EB91EB182A08285E0F82E8F2D6C
:10491000DF91CF911F910F91FF90DF90CF90BF90CB
:10492000AF9008951ED18823D9F2F82EF0CFF6016A
:1049300081916F018093F1002197FFEFAF1ABF0AB9
:10494000CFCFFC0180918103909182038617970756
:10495000A0F06115710529F49091E8009E7790937D
:10496000E80090E06115710551F4911108C0809143
:10497000E80082FF34C080E00895BC01F2CF80914E
:104980007A038823C1F18530C1F18091E80083FD6D
:1049900030C08091E80082FDEACF8091E80080FF7E
:1049A000E1CF8091F3002091F200382F611571055D
:1049B00019F02830310558F091E02830310509F020
:1049C00090E02091E8002E772093E800CBCF8191F2
:1049D0008093F100615071092F5F3F4FE7CF8091C5
:1049E0007A03882341F0853041F08091E80083FF0D
:1049F000BECF81E0089582E0089583E00895FC0130
:104A0000809181039091820386179707A0F061152A
:104A1000710529F48091E8008E778093E80090E09A
:104A20006115710551F4911108C08091E80082FF71
:104A300035C080E00895BC01F2CF80917A038823CD
:104A4000C9F18530C9F18091E80083FD31C08091C2
:104A5000E80082FDEACF8091E80080FFE1CF8091FD
:104A6000F3002091F200382F6115710519F02830FC
:104A7000310558F091E02830310509F090E080913F
:104A8000E8008E778093E800CBCF84918093F1008B
:104A90003196615071092F5F3F4FE6CF80917A03C5
:104AA000882341F0853041F08091E80083FFBDCF3D
:104AB00081E0089582E0089583E00895982F97306B
:104AC00028F08F708093E90081E008959093E900C9
:104AD000242F762F50E0981731F07091EC00209140
:104AE000ED005091F00021FD02C09F5FE8CF3091B2
:104AF000EB003E7F3093EB003091ED003D7F309333
:104B0000ED003091EB0031603093EB007093EC00DE
:104B10002093ED005093F0002091EE0027FDE5CFAB
:104B200080E0089580917B0387FF13C08091E800A7
:104B300082FF06C08091E8008B778093E80004C074
:104B400080917A038111F2CF089580917A038823AE
:104B5000D9F38091E80080FFF8CF8091E8008E774C
:104B6000ECCF2091E4003091E50095E6A901209179
:104B7000EC00822F817020FF06C08091E80080FF4A
:104B800006C080E008952091E80022FD1AC08091BF
:104B90007A03882389F0853089F08091EB0085FDC8
:104BA0000FC02091E4003091E50042175307F9F25D
:104BB0009150E1F684E0089582E0089583E008953D
:104BC00081E0089567D06ED0E0EEF0E080818160F2
:104BD0008083E8EDF0E080818F77808319BCA7EDBA
:104BE000B0E08C918E7F8C9380818F7E8083109239
:104BF000790308950F931F93CF93DF934BD052D037
:104C0000C8EDD0E088818F77888388818068888329
:104C100088818F7D888319BC10927A031092760365
:104C2000109278031092770300EE10E0F801808173
:104C30008B7F808388818160888342E060E080E0B0
:104C40003DDFE1EEF0E080818E7F8083E2EEF0E0F8
:104C5000808181608083808188608083F801808189
:104C60008E7F8083888180618883DF91CF911F91BF
:104C70000F910895E8EDF0E080818F7E8083E7ED6D
:104C8000F0E080818160808384E082BF81E0809356
:104C90007903B0CFE8EDF0E080818E7F80831092C1
:104CA000E20008951092DA001092E10008951F9238
:104CB0000F920FB60F9211242F933F934F935F9350
:104CC0006F937F938F939F93AF93BF93EF93FF93D4
:104CD0008091E10082FF0AC08091E20082FF06C05D
:104CE0008091E1008B7F8093E1002DD28091DA00EA
:104CF00080FF18C08091D80080FF14C08091DA0036
:104D00008E7F8093DA008091D90080FF91C080E18E
:104D100089BD82E189BD09B400FEFDCF81E08093A9
:104D20007A0331DC8091E10080FF18C08091E200BD
:104D300080FF14C08091E2008E7F8093E20080911A
:104D4000E20080618093E2008091D80080628093CD
:104D5000D80019BC85E080937A0327DC8091E100BC
:104D600084FF2AC08091E20084FF26C080E189BDD3
:104D700082E189BD89B5982F917080FFFBCF80912A
:104D8000D8008F7D8093D8008091E1008F7E809342
:104D9000E1008091E2008F7E8093E2008091E2004A
:104DA00081608093E20080917603882309F445C0F6
:104DB00084E080937A0300DC8091E10083FF27C0C8
:104DC0008091E20083FF23C08091E100877F809380
:104DD000E10082E080937A03109276038091E100F3
:104DE0008E7F8093E1008091E2008E7F8093E200CD
:104DF0008091E20080618093E20042E060E080E028
:104E00005DDE8091F00088608093F000CBDBFF9145
:104E1000EF91BF91AF919F918F917F916F915F9132
:104E20004F913F912F910F900FBE0F901F901895AB
:104E300019BC10927A03B3DB75CF8091E30087FD34
:104E400093E090937A03B7CF1F920F920FB60F9211
:104E500011242F933F934F935F936F937F938F937F
:104E60009F93AF93BF93CF93DF93EF93FF93D09133
:104E7000E900DF708091EC00C82FC17080FDC0E8B0
:104E80001092E9008091F000877F8093F000789481
:104E90001ED01092E9008091F00088608093F000AD
:104EA000CD2BCF70C093E900FF91EF91DF91CF91AF
:104EB000BF91AF919F918F917F916F915F914F9132
:104EC0003F912F910F900FBE0F901F901895AAE25F
:104ED000B0E0ECE6F7E203C28BE793E02091F1004B
:104EE000FC012193CF01F3E083389F07B9F77EDB04
:104EF0008091E80083FF16C180917B0390917C0331
:104F00009A3008F00FC1E92FF0E0ED51F54DA7C13F
:104F1000803899F0823809F005C180917F038F7045
:104F2000873008F0FFC08093E9008091EB0085FB9B
:104F3000882780F91092E90006C08091770390914C
:104F40007803911182609091E800977F9093E80038
:104F50008093F1001092F1008091E8008E77DFC01D
:104F6000882309F4CDC0823009F0DCC080917D0334
:104F70008111D0C080917F038F702FEF280F2630D2
:104F800008F0D0C08093E9002091EB0020FFC2C060
:104F9000933031F48091EB0080628093EB00BAC0D3
:104FA0009091EB0090619093EB0021E030E001C024
:104FB000220F8A95EAF72093EA001092EA00809186
:104FC000EB008860EACF8111ADC010917D031F779F
:104FD0008091E3008078812B8093E3008091E8004A
:104FE000877F8093E8009EDD8091E80080FFFCCF02
:104FF0008091E30080688093E30082E0111183E0F8
:1050000080937A038FC08058823008F08BC08091E3
:105010007D0390917E038C3D23E0920799F583E018
:105020008A838AE289834FB7F894DE01139620E0E1
:105030003EE051E2E32FF0E050935700E49120FF6F
:1050400003C0E295EF703F5FEF708E2F90E0EA3083
:10505000B8F0C7968D939D932F5F243159F74FBFBA
:105060008091E800877F8093E8006AE270E0CE01DB
:10507000019667DC8091E8008B778093E80052C04E
:10508000C096E8CF60917F0370918003AE014F5FBF
:105090005F4F96DBBC01892B09F444C09091E80076
:1050A000977F9093E80089819A81A9DCE3CF8038CB
:1050B000C9F58091E800877F8093E80080917603AE
:1050C0008093F10049CF81112DC090917D039230E2
:1050D00048F58091E800877F8093E80090937603FD
:1050E00021DD80917603882311F084E005C0809152
:1050F000E30087FDFACF81E080937A0366DA12C07D
:1051000080917D03813071F481E0933009F080E07B
:10511000809378031092E9008091E800877F809364
:10512000E80000DD8091E80083FF0AC08091E8007C
:10513000877F8093E8008091EB0080628093EB0092
:10514000AA96E3E0E8C00895CF9380917A0388237C
:1051500099F0C091E900CF709091EC00892F817097
:1051600090FD80E8C82B1092E9008091E80083FD53
:10517000AEDECF70C093E900CF910895DB018F932D
:105180009F938ED0BF91AF91A29F800D911DA39F41
:10519000900DB29F900D11240895991B79E004C0E1
:1051A000991F961708F0961B881F7A95C9F7809566
:1051B000089587FB082E062687FD819567FD61957A
:1051C000ECDF0EF4919507FC81950895AA1BBB1B9B
:1051D00051E107C0AA1FBB1FA617B70710F0A61BF7
:1051E000B70B881F991F5A95A9F780959095BC0118
:1051F000CD01089597FB072E16F4009406D077FD95
:1052000008D0E4DF07FC05D03EF4909581959F4FD0
:105210000895709561957F4F0895A1E21A2EAA1BFB
:10522000BB1BFD010DC0AA1FBB1FEE1FFF1FA21756
:10523000B307E407F50720F0A21BB30BE40BF50B53
:10524000661F771F881F991F1A9469F760957095DC
:10525000809590959B01AC01BD01CF010895EE0FA3
:10526000FF1F0590F491E02D099405D0332312F42B
:105270008A1B9B0B10C0A29FB001B39FC001A39FCC
:10528000700D811D1124911DB29F700D811D11247F
:10529000911D0895F0DFB7FF0895821B930B0895C9
:1052A000EADFA59F900DB49F900DA49F800D911DE6
:1052B00011240895B7FFF4CFF3DF821B930B0895F9
:1052C0002F923F924F925F926F927F928F929F9216
:1052D000AF92BF92CF92DF92EF92FF920F931F9304
:1052E000CF93DF93CDB7DEB7CA1BDB0B0FB6F894B5
:1052F000DEBF0FBECDBF09942A88398848885F84F5
:105300006E847D848C849B84AA84B984C884DF8065
:10531000EE80FD800C811B81AA81B981CE0FD11D49
:105320000FB6F894DEBF0FBECDBFED010895002E7D
:10533000083090F0982F872F762F652F542F432F0A
:10534000322F22270850F4CF220F331F441F551F3E
:10535000661F771F881F991F0A95B2F7002D0895C1
:1053600097FD1094002E083098F00850232F342F0A
:10537000452F562F672F782F892F912DF4CF159415
:10538000979587957795679557954795379527957D
:105390000A95AAF71124002D08958F929F92AF923B
:1053A000BF92CF92DF92EF92FF92CF93DF93EC0107
:1053B000688179818A819B816115710581059105DB
:1053C00021F464E279ED8BE597E02DE133EF41E0E4
:1053D00050E09BD049015A019B01AC01A7EAB1E41E
:1053E0005FDF6B017C01ACEEB4EFA501940164DFDB
:1053F000DC01CB018C0D9D1DAE1DBF1DB7FF03C091
:105400000197A109B04888839983AA83BB839F77BA
:10541000DF91CF91FF90EF90DF90CF90BF90AF9052
:105420009F908F900895B9CF80E091E0B6CFB0E023
:10543000A0E08093000190930101A0930201B0933A
:1054400003010895FC014150504030F001900616D0
:10545000D1F73197CF010895882799270895FB0147
:10546000DC0104C08D910190801921F4415050401D
:10547000C8F7881B990B0895FB01DC0102C001905D
:105480000D9241505040D8F70895F999FECF92BD42
:1054900081BDF89A992780B50895A6E1B0E044E06F
:1054A00050E025C0A8E1B0E042E050E020C0262F47
:1054B000F999FECF92BD81BDF89A019700B402160A
:1054C00039F01FBA20BD0FB6F894FA9AF99A0FBEB8
:1054D00008950396272FECDFEADF252FE9DF242F3D
:1054E000E7CF0196272FE4DFE2CFDC01CB01FC01FF
:1054F000F999FECF06C0F2BDE1BDF89A319600B42D
:105500000D9241505040B8F70895052E97FB16F4C0
:1055100000940FD057FD05D080DE07FC02D046F482
:1055200008C050954095309521953F4F4F4F5F4FA4
:10553000089590958095709561957F4F8F4F9F4FFF
:105540000895F894FFCF1A061A0650065006A906C9
:10555000C50642064206C90632073E073E07A812A4
:10556000AF12B312B712BB12BF12C312C712CB12C3
:10557000CF12D312DC1B4E1CE41BAE1BB21BE81B6C
:10558000B61BEC1BF81BC21B471CC61BFC1BCA1B13
:10559000001C281CCE1B041C2F1CD41B0A1C121C14
:1055A000BA1BF01BBE1BF41BD81B0E1C1E1C381C88
:1055B000451CA81BE01B551C481F4E1F381F421FCF
:1055C000541F5A1F601F8827B0279228B02792289F
:0A55D000E3270328922857286328D8
:1055DA00010000008602A602010102000C000C0C68
:1055EA0001191A1B1C1D1E1F202122280850011EEA
:1055FA000A1401000001007721AF22AA22A522A0E5
:10560A0022E200E900EA00B500B600B700CD008347
:10561A0001CC008A0192019401210223022402256D
:10562A0002260227022A02B300B4006F0070009F0C
:10563A0001CB019F02A002818283E200E900EA0015
:10564A00B500B600B700CD008301CC008A019201F3
:10565A0094012102230224022502260227022A0299
:10566A00B300B4006F0070009F01CB019F02A0023B
:10567A00818283F0F1C6676636943137353497965E
:10568A0033909192939500010202020206060609DE
:10569A0009090909090F0F0F0F0F0F151515181909
:1056AA00191919191919191919232425252525250F
:0A56BA0025031B051B101B1B1B0022
:00000001FF
